{
  "contractName": "ENCNFT",
  "abi": [
    {
      "inputs": [
        {
          "internalType": "address",
          "name": "_marketplace",
          "type": "address"
        }
      ],
      "stateMutability": "nonpayable",
      "type": "constructor"
    },
    {
      "anonymous": false,
      "inputs": [
        {
          "indexed": true,
          "internalType": "address",
          "name": "owner",
          "type": "address"
        },
        {
          "indexed": true,
          "internalType": "address",
          "name": "approved",
          "type": "address"
        },
        {
          "indexed": true,
          "internalType": "uint256",
          "name": "tokenId",
          "type": "uint256"
        }
      ],
      "name": "Approval",
      "type": "event"
    },
    {
      "anonymous": false,
      "inputs": [
        {
          "indexed": true,
          "internalType": "address",
          "name": "owner",
          "type": "address"
        },
        {
          "indexed": true,
          "internalType": "address",
          "name": "operator",
          "type": "address"
        },
        {
          "indexed": false,
          "internalType": "bool",
          "name": "approved",
          "type": "bool"
        }
      ],
      "name": "ApprovalForAll",
      "type": "event"
    },
    {
      "anonymous": false,
      "inputs": [
        {
          "indexed": false,
          "internalType": "uint256",
          "name": "",
          "type": "uint256"
        }
      ],
      "name": "NFTMinted",
      "type": "event"
    },
    {
      "anonymous": false,
      "inputs": [
        {
          "indexed": true,
          "internalType": "address",
          "name": "from",
          "type": "address"
        },
        {
          "indexed": true,
          "internalType": "address",
          "name": "to",
          "type": "address"
        },
        {
          "indexed": true,
          "internalType": "uint256",
          "name": "tokenId",
          "type": "uint256"
        }
      ],
      "name": "Transfer",
      "type": "event"
    },
    {
      "inputs": [
        {
          "internalType": "address",
          "name": "to",
          "type": "address"
        },
        {
          "internalType": "uint256",
          "name": "tokenId",
          "type": "uint256"
        }
      ],
      "name": "approve",
      "outputs": [],
      "stateMutability": "nonpayable",
      "type": "function"
    },
    {
      "inputs": [
        {
          "internalType": "address",
          "name": "owner",
          "type": "address"
        }
      ],
      "name": "balanceOf",
      "outputs": [
        {
          "internalType": "uint256",
          "name": "",
          "type": "uint256"
        }
      ],
      "stateMutability": "view",
      "type": "function",
      "constant": true
    },
    {
      "inputs": [
        {
          "internalType": "uint256",
          "name": "tokenId",
          "type": "uint256"
        }
      ],
      "name": "getApproved",
      "outputs": [
        {
          "internalType": "address",
          "name": "",
          "type": "address"
        }
      ],
      "stateMutability": "view",
      "type": "function",
      "constant": true
    },
    {
      "inputs": [
        {
          "internalType": "address",
          "name": "owner",
          "type": "address"
        },
        {
          "internalType": "address",
          "name": "operator",
          "type": "address"
        }
      ],
      "name": "isApprovedForAll",
      "outputs": [
        {
          "internalType": "bool",
          "name": "",
          "type": "bool"
        }
      ],
      "stateMutability": "view",
      "type": "function",
      "constant": true
    },
    {
      "inputs": [],
      "name": "marketplace",
      "outputs": [
        {
          "internalType": "address",
          "name": "",
          "type": "address"
        }
      ],
      "stateMutability": "view",
      "type": "function",
      "constant": true
    },
    {
      "inputs": [],
      "name": "name",
      "outputs": [
        {
          "internalType": "string",
          "name": "",
          "type": "string"
        }
      ],
      "stateMutability": "view",
      "type": "function",
      "constant": true
    },
    {
      "inputs": [
        {
          "internalType": "uint256",
          "name": "tokenId",
          "type": "uint256"
        }
      ],
      "name": "ownerOf",
      "outputs": [
        {
          "internalType": "address",
          "name": "",
          "type": "address"
        }
      ],
      "stateMutability": "view",
      "type": "function",
      "constant": true
    },
    {
      "inputs": [
        {
          "internalType": "address",
          "name": "from",
          "type": "address"
        },
        {
          "internalType": "address",
          "name": "to",
          "type": "address"
        },
        {
          "internalType": "uint256",
          "name": "tokenId",
          "type": "uint256"
        }
      ],
      "name": "safeTransferFrom",
      "outputs": [],
      "stateMutability": "nonpayable",
      "type": "function"
    },
    {
      "inputs": [
        {
          "internalType": "address",
          "name": "from",
          "type": "address"
        },
        {
          "internalType": "address",
          "name": "to",
          "type": "address"
        },
        {
          "internalType": "uint256",
          "name": "tokenId",
          "type": "uint256"
        },
        {
          "internalType": "bytes",
          "name": "data",
          "type": "bytes"
        }
      ],
      "name": "safeTransferFrom",
      "outputs": [],
      "stateMutability": "nonpayable",
      "type": "function"
    },
    {
      "inputs": [
        {
          "internalType": "address",
          "name": "operator",
          "type": "address"
        },
        {
          "internalType": "bool",
          "name": "approved",
          "type": "bool"
        }
      ],
      "name": "setApprovalForAll",
      "outputs": [],
      "stateMutability": "nonpayable",
      "type": "function"
    },
    {
      "inputs": [
        {
          "internalType": "bytes4",
          "name": "interfaceId",
          "type": "bytes4"
        }
      ],
      "name": "supportsInterface",
      "outputs": [
        {
          "internalType": "bool",
          "name": "",
          "type": "bool"
        }
      ],
      "stateMutability": "view",
      "type": "function",
      "constant": true
    },
    {
      "inputs": [],
      "name": "symbol",
      "outputs": [
        {
          "internalType": "string",
          "name": "",
          "type": "string"
        }
      ],
      "stateMutability": "view",
      "type": "function",
      "constant": true
    },
    {
      "inputs": [
        {
          "internalType": "uint256",
          "name": "",
          "type": "uint256"
        },
        {
          "internalType": "uint256",
          "name": "",
          "type": "uint256"
        }
      ],
      "name": "tokenHistoryEncryption",
      "outputs": [
        {
          "internalType": "address",
          "name": "currentOwner",
          "type": "address"
        },
        {
          "internalType": "string",
          "name": "encryptKeyForOwner",
          "type": "string"
        }
      ],
      "stateMutability": "view",
      "type": "function",
      "constant": true
    },
    {
      "inputs": [
        {
          "internalType": "address",
          "name": "",
          "type": "address"
        },
        {
          "internalType": "uint256",
          "name": "",
          "type": "uint256"
        }
      ],
      "name": "tokenOwnersOfToken",
      "outputs": [
        {
          "internalType": "uint256",
          "name": "",
          "type": "uint256"
        }
      ],
      "stateMutability": "view",
      "type": "function",
      "constant": true
    },
    {
      "inputs": [
        {
          "internalType": "uint256",
          "name": "tokenId",
          "type": "uint256"
        }
      ],
      "name": "tokenURI",
      "outputs": [
        {
          "internalType": "string",
          "name": "",
          "type": "string"
        }
      ],
      "stateMutability": "view",
      "type": "function",
      "constant": true
    },
    {
      "inputs": [
        {
          "internalType": "address",
          "name": "from",
          "type": "address"
        },
        {
          "internalType": "address",
          "name": "to",
          "type": "address"
        },
        {
          "internalType": "uint256",
          "name": "tokenId",
          "type": "uint256"
        }
      ],
      "name": "transferFrom",
      "outputs": [],
      "stateMutability": "nonpayable",
      "type": "function"
    },
    {
      "inputs": [
        {
          "internalType": "string",
          "name": "_tokenURI",
          "type": "string"
        },
        {
          "internalType": "string",
          "name": "decryptKeyForOwner",
          "type": "string"
        }
      ],
      "name": "mint",
      "outputs": [],
      "stateMutability": "nonpayable",
      "type": "function"
    },
    {
      "inputs": [
        {
          "internalType": "address",
          "name": "_to",
          "type": "address"
        },
        {
          "internalType": "uint256",
          "name": "_tokenId",
          "type": "uint256"
        },
        {
          "internalType": "bytes",
          "name": "_data",
          "type": "bytes"
        }
      ],
      "name": "transferTokenWithEncryption",
      "outputs": [],
      "stateMutability": "nonpayable",
      "type": "function"
    },
    {
      "inputs": [
        {
          "internalType": "uint256",
          "name": "_tokenId",
          "type": "uint256"
        }
      ],
      "name": "getTokenInfoLastOwner",
      "outputs": [
        {
          "internalType": "address",
          "name": "owner",
          "type": "address"
        },
        {
          "internalType": "string",
          "name": "encData",
          "type": "string"
        }
      ],
      "stateMutability": "view",
      "type": "function",
      "constant": true
    },
    {
      "inputs": [
        {
          "internalType": "address",
          "name": "owner",
          "type": "address"
        }
      ],
      "name": "getIdsByAddress",
      "outputs": [
        {
          "internalType": "uint256[]",
          "name": "",
          "type": "uint256[]"
        }
      ],
      "stateMutability": "view",
      "type": "function",
      "constant": true
    }
  ],
  "bytecode": "0x60806040523480156200001157600080fd5b50604051620036ab380380620036ab833981810160405281019062000037919062000239565b6040518060400160405280600b81526020017f456e636f646564204e46540000000000000000000000000000000000000000008152506040518060400160405280600481526020017f454e4654000000000000000000000000000000000000000000000000000000008152508160009080519060200190620000bb9291906200011f565b508060019080519060200190620000d49291906200011f565b50505080600a60006101000a81548173ffffffffffffffffffffffffffffffffffffffff021916908373ffffffffffffffffffffffffffffffffffffffff16021790555050620002cf565b8280546200012d906200029a565b90600052602060002090601f0160209004810192826200015157600085556200019d565b82601f106200016c57805160ff19168380011785556200019d565b828001600101855582156200019d579182015b828111156200019c5782518255916020019190600101906200017f565b5b509050620001ac9190620001b0565b5090565b5b80821115620001cb576000816000905550600101620001b1565b5090565b600080fd5b600073ffffffffffffffffffffffffffffffffffffffff82169050919050565b60006200020182620001d4565b9050919050565b6200021381620001f4565b81146200021f57600080fd5b50565b600081519050620002338162000208565b92915050565b600060208284031215620002525762000251620001cf565b5b6000620002628482850162000222565b91505092915050565b7f4e487b7100000000000000000000000000000000000000000000000000000000600052602260045260246000fd5b60006002820490506001821680620002b357607f821691505b602082108103620002c957620002c86200026b565b5b50919050565b6133cc80620002df6000396000f3fe608060405234801561001057600080fd5b506004361061012c5760003560e01c8063a22cb465116100ad578063c87b56dd11610071578063c87b56dd14610340578063d7f7a49f14610370578063ddce5574146103a0578063e793810f146103d0578063e985e9c5146104015761012c565b8063a22cb4651461029d578063abc8c7af146102b9578063b88d4fde146102d7578063bc235a39146102f3578063c215268c146103245761012c565b806342842e0e116100f457806342842e0e146101e75780636352211e1461020357806370a08231146102335780638aa0fdad1461026357806395d89b411461027f5761012c565b806301ffc9a71461013157806306fdde0314610161578063081812fc1461017f578063095ea7b3146101af57806323b872dd146101cb575b600080fd5b61014b6004803603810190610146919061226d565b610431565b60405161015891906122b5565b60405180910390f35b610169610513565b6040516101769190612369565b60405180910390f35b610199600480360381019061019491906123c1565b6105a5565b6040516101a6919061242f565b60405180910390f35b6101c960048036038101906101c49190612476565b6105eb565b005b6101e560048036038101906101e091906124b6565b610702565b005b61020160048036038101906101fc91906124b6565b610762565b005b61021d600480360381019061021891906123c1565b610782565b60405161022a919061242f565b60405180910390f35b61024d60048036038101906102489190612509565b610808565b60405161025a9190612545565b60405180910390f35b61027d60048036038101906102789190612695565b6108bf565b005b610287610a87565b6040516102949190612369565b60405180910390f35b6102b760048036038101906102b29190612739565b610b19565b005b6102c1610b2f565b6040516102ce919061242f565b60405180910390f35b6102f160048036038101906102ec919061281a565b610b55565b005b61030d6004803603810190610308919061289d565b610bb7565b60405161031b9291906128dd565b60405180910390f35b61033e6004803603810190610339919061290d565b610ca0565b005b61035a600480360381019061035591906123c1565b610df2565b6040516103679190612369565b60405180910390f35b61038a60048036038101906103859190612476565b610f04565b6040516103979190612545565b60405180910390f35b6103ba60048036038101906103b59190612509565b610f35565b6040516103c79190612a3a565b60405180910390f35b6103ea60048036038101906103e591906123c1565b610fcc565b6040516103f89291906128dd565b60405180910390f35b61041b60048036038101906104169190612a5c565b6110dc565b60405161042891906122b5565b60405180910390f35b60007f80ac58cd000000000000000000000000000000000000000000000000000000007bffffffffffffffffffffffffffffffffffffffffffffffffffffffff1916827bffffffffffffffffffffffffffffffffffffffffffffffffffffffff191614806104fc57507f5b5e139f000000000000000000000000000000000000000000000000000000007bffffffffffffffffffffffffffffffffffffffffffffffffffffffff1916827bffffffffffffffffffffffffffffffffffffffffffffffffffffffff1916145b8061050c575061050b82611170565b5b9050919050565b60606000805461052290612acb565b80601f016020809104026020016040519081016040528092919081815260200182805461054e90612acb565b801561059b5780601f106105705761010080835404028352916020019161059b565b820191906000526020600020905b81548152906001019060200180831161057e57829003601f168201915b5050505050905090565b60006105b0826111da565b6004600083815260200190815260200160002060009054906101000a900473ffffffffffffffffffffffffffffffffffffffff169050919050565b60006105f682610782565b90508073ffffffffffffffffffffffffffffffffffffffff168373ffffffffffffffffffffffffffffffffffffffff1603610666576040517f08c379a000000000000000000000000000000000000000000000000000000000815260040161065d90612b6e565b60405180910390fd5b8073ffffffffffffffffffffffffffffffffffffffff16610685611225565b73ffffffffffffffffffffffffffffffffffffffff1614806106b457506106b3816106ae611225565b6110dc565b5b6106f3576040517f08c379a00000000000000000000000000000000000000000000000000000000081526004016106ea90612c00565b60405180910390fd5b6106fd838361122d565b505050565b61071361070d611225565b826112e6565b610752576040517f08c379a000000000000000000000000000000000000000000000000000000000815260040161074990612c92565b60405180910390fd5b61075d83838361137b565b505050565b61077d83838360405180602001604052806000815250610b55565b505050565b60008061078e83611674565b9050600073ffffffffffffffffffffffffffffffffffffffff168173ffffffffffffffffffffffffffffffffffffffff16036107ff576040517f08c379a00000000000000000000000000000000000000000000000000000000081526004016107f690612cfe565b60405180910390fd5b80915050919050565b60008073ffffffffffffffffffffffffffffffffffffffff168273ffffffffffffffffffffffffffffffffffffffff1603610878576040517f08c379a000000000000000000000000000000000000000000000000000000000815260040161086f90612d90565b60405180910390fd5b600360008373ffffffffffffffffffffffffffffffffffffffff1673ffffffffffffffffffffffffffffffffffffffff168152602001908152602001600020549050919050565b6108c960076116b1565b60006108d560076116c7565b90506108e133826116d5565b6108eb81846116f3565b610918600a60009054906101000a900473ffffffffffffffffffffffffffffffffffffffff166001610b19565b6008600082815260200190815260200160002060405180604001604052803373ffffffffffffffffffffffffffffffffffffffff16815260200184815250908060018154018082558091505060019003906000526020600020906002020160009091909190915060008201518160000160006101000a81548173ffffffffffffffffffffffffffffffffffffffff021916908373ffffffffffffffffffffffffffffffffffffffff16021790555060208201518160010190805190602001906109e292919061215e565b505050600960003373ffffffffffffffffffffffffffffffffffffffff1673ffffffffffffffffffffffffffffffffffffffff1681526020019081526020016000208190806001815401808255809150506001900390600052602060002001600090919091909150557fd9dc24857f317ed9abbbb42e920ede0104231eb1d3d70236a74887ffaf15986881604051610a7a9190612545565b60405180910390a1505050565b606060018054610a9690612acb565b80601f0160208091040260200160405190810160405280929190818152602001828054610ac290612acb565b8015610b0f5780601f10610ae457610100808354040283529160200191610b0f565b820191906000526020600020905b815481529060010190602001808311610af257829003601f168201915b5050505050905090565b610b2b610b24611225565b8383611767565b5050565b600a60009054906101000a900473ffffffffffffffffffffffffffffffffffffffff1681565b610b66610b60611225565b836112e6565b610ba5576040517f08c379a0000000000000000000000000000000000000000000000000000000008152600401610b9c90612c92565b60405180910390fd5b610bb1848484846118d3565b50505050565b60086020528160005260406000208181548110610bd357600080fd5b9060005260206000209060020201600091509150508060000160009054906101000a900473ffffffffffffffffffffffffffffffffffffffff1690806001018054610c1d90612acb565b80601f0160208091040260200160405190810160405280929190818152602001828054610c4990612acb565b8015610c965780601f10610c6b57610100808354040283529160200191610c96565b820191906000526020600020905b815481529060010190602001808311610c7957829003601f168201915b5050505050905082565b6000610cab83610782565b9050610cb981858585610b55565b6008600084815260200190815260200160002060405180604001604052808673ffffffffffffffffffffffffffffffffffffffff16815260200184815250908060018154018082558091505060019003906000526020600020906002020160009091909190915060008201518160000160006101000a81548173ffffffffffffffffffffffffffffffffffffffff021916908373ffffffffffffffffffffffffffffffffffffffff1602179055506020820151816001019080519060200190610d8392919061215e565b505050600960008573ffffffffffffffffffffffffffffffffffffffff1673ffffffffffffffffffffffffffffffffffffffff16815260200190815260200160002083908060018154018082558091505060019003906000526020600020016000909190919091505550505050565b6060610dfd826111da565b6000600660008481526020019081526020016000208054610e1d90612acb565b80601f0160208091040260200160405190810160405280929190818152602001828054610e4990612acb565b8015610e965780601f10610e6b57610100808354040283529160200191610e96565b820191906000526020600020905b815481529060010190602001808311610e7957829003601f168201915b505050505090506000610ea761192f565b90506000815103610ebc578192505050610eff565b600082511115610ef1578082604051602001610ed9929190612dec565b60405160208183030381529060405292505050610eff565b610efa84611946565b925050505b919050565b60096020528160005260406000208181548110610f2057600080fd5b90600052602060002001600091509150505481565b6060600960008373ffffffffffffffffffffffffffffffffffffffff1673ffffffffffffffffffffffffffffffffffffffff168152602001908152602001600020805480602002602001604051908101604052809291908181526020018280548015610fc057602002820191906000526020600020905b815481526020019060010190808311610fac575b50505050509050919050565b60006060600060086000858152602001908152602001600020905060008160018380549050610ffb9190612e3f565b8154811061100c5761100b612e73565b5b906000526020600020906002020190508060000160009054906101000a900473ffffffffffffffffffffffffffffffffffffffff168160010180805461105190612acb565b80601f016020809104026020016040519081016040528092919081815260200182805461107d90612acb565b80156110ca5780601f1061109f576101008083540402835291602001916110ca565b820191906000526020600020905b8154815290600101906020018083116110ad57829003601f168201915b50505050509050935093505050915091565b6000600560008473ffffffffffffffffffffffffffffffffffffffff1673ffffffffffffffffffffffffffffffffffffffff16815260200190815260200160002060008373ffffffffffffffffffffffffffffffffffffffff1673ffffffffffffffffffffffffffffffffffffffff16815260200190815260200160002060009054906101000a900460ff16905092915050565b60007f01ffc9a7000000000000000000000000000000000000000000000000000000007bffffffffffffffffffffffffffffffffffffffffffffffffffffffff1916827bffffffffffffffffffffffffffffffffffffffffffffffffffffffff1916149050919050565b6111e3816119ae565b611222576040517f08c379a000000000000000000000000000000000000000000000000000000000815260040161121990612cfe565b60405180910390fd5b50565b600033905090565b816004600083815260200190815260200160002060006101000a81548173ffffffffffffffffffffffffffffffffffffffff021916908373ffffffffffffffffffffffffffffffffffffffff160217905550808273ffffffffffffffffffffffffffffffffffffffff166112a083610782565b73ffffffffffffffffffffffffffffffffffffffff167f8c5be1e5ebec7d5bd14f71427d1e84f3dd0314c0f7b2291e5b200ac8c7c3b92560405160405180910390a45050565b6000806112f283610782565b90508073ffffffffffffffffffffffffffffffffffffffff168473ffffffffffffffffffffffffffffffffffffffff161480611334575061133381856110dc565b5b8061137257508373ffffffffffffffffffffffffffffffffffffffff1661135a846105a5565b73ffffffffffffffffffffffffffffffffffffffff16145b91505092915050565b8273ffffffffffffffffffffffffffffffffffffffff1661139b82610782565b73ffffffffffffffffffffffffffffffffffffffff16146113f1576040517f08c379a00000000000000000000000000000000000000000000000000000000081526004016113e890612f14565b60405180910390fd5b600073ffffffffffffffffffffffffffffffffffffffff168273ffffffffffffffffffffffffffffffffffffffff1603611460576040517f08c379a000000000000000000000000000000000000000000000000000000000815260040161145790612fa6565b60405180910390fd5b61146d83838360016119ef565b8273ffffffffffffffffffffffffffffffffffffffff1661148d82610782565b73ffffffffffffffffffffffffffffffffffffffff16146114e3576040517f08c379a00000000000000000000000000000000000000000000000000000000081526004016114da90612f14565b60405180910390fd5b6004600082815260200190815260200160002060006101000a81549073ffffffffffffffffffffffffffffffffffffffff02191690556001600360008573ffffffffffffffffffffffffffffffffffffffff1673ffffffffffffffffffffffffffffffffffffffff168152602001908152602001600020600082825403925050819055506001600360008473ffffffffffffffffffffffffffffffffffffffff1673ffffffffffffffffffffffffffffffffffffffff16815260200190815260200160002060008282540192505081905550816002600083815260200190815260200160002060006101000a81548173ffffffffffffffffffffffffffffffffffffffff021916908373ffffffffffffffffffffffffffffffffffffffff160217905550808273ffffffffffffffffffffffffffffffffffffffff168473ffffffffffffffffffffffffffffffffffffffff167fddf252ad1be2c89b69c2b068fc378daa952ba7f163c4a11628f55a4df523b3ef60405160405180910390a461166f8383836001611b15565b505050565b60006002600083815260200190815260200160002060009054906101000a900473ffffffffffffffffffffffffffffffffffffffff169050919050565b6001816000016000828254019250508190555050565b600081600001549050919050565b6116ef828260405180602001604052806000815250611b1b565b5050565b6116fc826119ae565b61173b576040517f08c379a000000000000000000000000000000000000000000000000000000000815260040161173290613038565b60405180910390fd5b8060066000848152602001908152602001600020908051906020019061176292919061215e565b505050565b8173ffffffffffffffffffffffffffffffffffffffff168373ffffffffffffffffffffffffffffffffffffffff16036117d5576040517f08c379a00000000000000000000000000000000000000000000000000000000081526004016117cc906130a4565b60405180910390fd5b80600560008573ffffffffffffffffffffffffffffffffffffffff1673ffffffffffffffffffffffffffffffffffffffff16815260200190815260200160002060008473ffffffffffffffffffffffffffffffffffffffff1673ffffffffffffffffffffffffffffffffffffffff16815260200190815260200160002060006101000a81548160ff0219169083151502179055508173ffffffffffffffffffffffffffffffffffffffff168373ffffffffffffffffffffffffffffffffffffffff167f17307eab39ab6107e8899845ad3d59bd9653f200f220920489ca2b5937696c31836040516118c691906122b5565b60405180910390a3505050565b6118de84848461137b565b6118ea84848484611b76565b611929576040517f08c379a000000000000000000000000000000000000000000000000000000000815260040161192090613136565b60405180910390fd5b50505050565b606060405180602001604052806000815250905090565b6060611951826111da565b600061195b61192f565b9050600081511161197b57604051806020016040528060008152506119a6565b8061198584611cfd565b604051602001611996929190612dec565b6040516020818303038152906040525b915050919050565b60008073ffffffffffffffffffffffffffffffffffffffff166119d083611674565b73ffffffffffffffffffffffffffffffffffffffff1614159050919050565b6001811115611b0f57600073ffffffffffffffffffffffffffffffffffffffff168473ffffffffffffffffffffffffffffffffffffffff1614611a835780600360008673ffffffffffffffffffffffffffffffffffffffff1673ffffffffffffffffffffffffffffffffffffffff1681526020019081526020016000206000828254611a7b9190612e3f565b925050819055505b600073ffffffffffffffffffffffffffffffffffffffff168373ffffffffffffffffffffffffffffffffffffffff1614611b0e5780600360008573ffffffffffffffffffffffffffffffffffffffff1673ffffffffffffffffffffffffffffffffffffffff1681526020019081526020016000206000828254611b069190613156565b925050819055505b5b50505050565b50505050565b611b258383611dcb565b611b326000848484611b76565b611b71576040517f08c379a0000000000000000000000000000000000000000000000000000000008152600401611b6890613136565b60405180910390fd5b505050565b6000611b978473ffffffffffffffffffffffffffffffffffffffff16611fe8565b15611cf0578373ffffffffffffffffffffffffffffffffffffffff1663150b7a02611bc0611225565b8786866040518563ffffffff1660e01b8152600401611be29493929190613201565b6020604051808303816000875af1925050508015611c1e57506040513d601f19601f82011682018060405250810190611c1b9190613262565b60015b611ca0573d8060008114611c4e576040519150601f19603f3d011682016040523d82523d6000602084013e611c53565b606091505b506000815103611c98576040517f08c379a0000000000000000000000000000000000000000000000000000000008152600401611c8f90613136565b60405180910390fd5b805181602001fd5b63150b7a0260e01b7bffffffffffffffffffffffffffffffffffffffffffffffffffffffff1916817bffffffffffffffffffffffffffffffffffffffffffffffffffffffff191614915050611cf5565b600190505b949350505050565b606060006001611d0c8461200b565b01905060008167ffffffffffffffff811115611d2b57611d2a61256a565b5b6040519080825280601f01601f191660200182016040528015611d5d5781602001600182028036833780820191505090505b509050600082602001820190505b600115611dc0578080600190039150507f3031323334353637383961626364656600000000000000000000000000000000600a86061a8153600a8581611db457611db361328f565b5b04945060008503611d6b575b819350505050919050565b600073ffffffffffffffffffffffffffffffffffffffff168273ffffffffffffffffffffffffffffffffffffffff1603611e3a576040517f08c379a0000000000000000000000000000000000000000000000000000000008152600401611e319061330a565b60405180910390fd5b611e43816119ae565b15611e83576040517f08c379a0000000000000000000000000000000000000000000000000000000008152600401611e7a90613376565b60405180910390fd5b611e916000838360016119ef565b611e9a816119ae565b15611eda576040517f08c379a0000000000000000000000000000000000000000000000000000000008152600401611ed190613376565b60405180910390fd5b6001600360008473ffffffffffffffffffffffffffffffffffffffff1673ffffffffffffffffffffffffffffffffffffffff16815260200190815260200160002060008282540192505081905550816002600083815260200190815260200160002060006101000a81548173ffffffffffffffffffffffffffffffffffffffff021916908373ffffffffffffffffffffffffffffffffffffffff160217905550808273ffffffffffffffffffffffffffffffffffffffff16600073ffffffffffffffffffffffffffffffffffffffff167fddf252ad1be2c89b69c2b068fc378daa952ba7f163c4a11628f55a4df523b3ef60405160405180910390a4611fe4600083836001611b15565b5050565b6000808273ffffffffffffffffffffffffffffffffffffffff163b119050919050565b600080600090507a184f03e93ff9f4daa797ed6e38ed64bf6a1f0100000000000000008310612069577a184f03e93ff9f4daa797ed6e38ed64bf6a1f010000000000000000838161205f5761205e61328f565b5b0492506040810190505b6d04ee2d6d415b85acef810000000083106120a6576d04ee2d6d415b85acef8100000000838161209c5761209b61328f565b5b0492506020810190505b662386f26fc1000083106120d557662386f26fc1000083816120cb576120ca61328f565b5b0492506010810190505b6305f5e10083106120fe576305f5e10083816120f4576120f361328f565b5b0492506008810190505b61271083106121235761271083816121195761211861328f565b5b0492506004810190505b60648310612146576064838161213c5761213b61328f565b5b0492506002810190505b600a8310612155576001810190505b80915050919050565b82805461216a90612acb565b90600052602060002090601f01602090048101928261218c57600085556121d3565b82601f106121a557805160ff19168380011785556121d3565b828001600101855582156121d3579182015b828111156121d25782518255916020019190600101906121b7565b5b5090506121e091906121e4565b5090565b5b808211156121fd5760008160009055506001016121e5565b5090565b6000604051905090565b600080fd5b600080fd5b60007fffffffff0000000000000000000000000000000000000000000000000000000082169050919050565b61224a81612215565b811461225557600080fd5b50565b60008135905061226781612241565b92915050565b6000602082840312156122835761228261220b565b5b600061229184828501612258565b91505092915050565b60008115159050919050565b6122af8161229a565b82525050565b60006020820190506122ca60008301846122a6565b92915050565b600081519050919050565b600082825260208201905092915050565b60005b8381101561230a5780820151818401526020810190506122ef565b83811115612319576000848401525b50505050565b6000601f19601f8301169050919050565b600061233b826122d0565b61234581856122db565b93506123558185602086016122ec565b61235e8161231f565b840191505092915050565b600060208201905081810360008301526123838184612330565b905092915050565b6000819050919050565b61239e8161238b565b81146123a957600080fd5b50565b6000813590506123bb81612395565b92915050565b6000602082840312156123d7576123d661220b565b5b60006123e5848285016123ac565b91505092915050565b600073ffffffffffffffffffffffffffffffffffffffff82169050919050565b6000612419826123ee565b9050919050565b6124298161240e565b82525050565b60006020820190506124446000830184612420565b92915050565b6124538161240e565b811461245e57600080fd5b50565b6000813590506124708161244a565b92915050565b6000806040838503121561248d5761248c61220b565b5b600061249b85828601612461565b92505060206124ac858286016123ac565b9150509250929050565b6000806000606084860312156124cf576124ce61220b565b5b60006124dd86828701612461565b93505060206124ee86828701612461565b92505060406124ff868287016123ac565b9150509250925092565b60006020828403121561251f5761251e61220b565b5b600061252d84828501612461565b91505092915050565b61253f8161238b565b82525050565b600060208201905061255a6000830184612536565b92915050565b600080fd5b600080fd5b7f4e487b7100000000000000000000000000000000000000000000000000000000600052604160045260246000fd5b6125a28261231f565b810181811067ffffffffffffffff821117156125c1576125c061256a565b5b80604052505050565b60006125d4612201565b90506125e08282612599565b919050565b600067ffffffffffffffff821115612600576125ff61256a565b5b6126098261231f565b9050602081019050919050565b82818337600083830152505050565b6000612638612633846125e5565b6125ca565b90508281526020810184848401111561265457612653612565565b5b61265f848285612616565b509392505050565b600082601f83011261267c5761267b612560565b5b813561268c848260208601612625565b91505092915050565b600080604083850312156126ac576126ab61220b565b5b600083013567ffffffffffffffff8111156126ca576126c9612210565b5b6126d685828601612667565b925050602083013567ffffffffffffffff8111156126f7576126f6612210565b5b61270385828601612667565b9150509250929050565b6127168161229a565b811461272157600080fd5b50565b6000813590506127338161270d565b92915050565b600080604083850312156127505761274f61220b565b5b600061275e85828601612461565b925050602061276f85828601612724565b9150509250929050565b600067ffffffffffffffff8211156127945761279361256a565b5b61279d8261231f565b9050602081019050919050565b60006127bd6127b884612779565b6125ca565b9050828152602081018484840111156127d9576127d8612565565b5b6127e4848285612616565b509392505050565b600082601f83011261280157612800612560565b5b81356128118482602086016127aa565b91505092915050565b600080600080608085870312156128345761283361220b565b5b600061284287828801612461565b945050602061285387828801612461565b9350506040612864878288016123ac565b925050606085013567ffffffffffffffff81111561288557612884612210565b5b612891878288016127ec565b91505092959194509250565b600080604083850312156128b4576128b361220b565b5b60006128c2858286016123ac565b92505060206128d3858286016123ac565b9150509250929050565b60006040820190506128f26000830185612420565b81810360208301526129048184612330565b90509392505050565b6000806000606084860312156129265761292561220b565b5b600061293486828701612461565b9350506020612945868287016123ac565b925050604084013567ffffffffffffffff81111561296657612965612210565b5b612972868287016127ec565b9150509250925092565b600081519050919050565b600082825260208201905092915050565b6000819050602082019050919050565b6129b18161238b565b82525050565b60006129c383836129a8565b60208301905092915050565b6000602082019050919050565b60006129e78261297c565b6129f18185612987565b93506129fc83612998565b8060005b83811015612a2d578151612a1488826129b7565b9750612a1f836129cf565b925050600181019050612a00565b5085935050505092915050565b60006020820190508181036000830152612a5481846129dc565b905092915050565b60008060408385031215612a7357612a7261220b565b5b6000612a8185828601612461565b9250506020612a9285828601612461565b9150509250929050565b7f4e487b7100000000000000000000000000000000000000000000000000000000600052602260045260246000fd5b60006002820490506001821680612ae357607f821691505b602082108103612af657612af5612a9c565b5b50919050565b7f4552433732313a20617070726f76616c20746f2063757272656e74206f776e6560008201527f7200000000000000000000000000000000000000000000000000000000000000602082015250565b6000612b586021836122db565b9150612b6382612afc565b604082019050919050565b60006020820190508181036000830152612b8781612b4b565b9050919050565b7f4552433732313a20617070726f76652063616c6c6572206973206e6f7420746f60008201527f6b656e206f776e6572206f7220617070726f76656420666f7220616c6c000000602082015250565b6000612bea603d836122db565b9150612bf582612b8e565b604082019050919050565b60006020820190508181036000830152612c1981612bdd565b9050919050565b7f4552433732313a2063616c6c6572206973206e6f7420746f6b656e206f776e6560008201527f72206f7220617070726f76656400000000000000000000000000000000000000602082015250565b6000612c7c602d836122db565b9150612c8782612c20565b604082019050919050565b60006020820190508181036000830152612cab81612c6f565b9050919050565b7f4552433732313a20696e76616c696420746f6b656e2049440000000000000000600082015250565b6000612ce86018836122db565b9150612cf382612cb2565b602082019050919050565b60006020820190508181036000830152612d1781612cdb565b9050919050565b7f4552433732313a2061646472657373207a65726f206973206e6f74206120766160008201527f6c6964206f776e65720000000000000000000000000000000000000000000000602082015250565b6000612d7a6029836122db565b9150612d8582612d1e565b604082019050919050565b60006020820190508181036000830152612da981612d6d565b9050919050565b600081905092915050565b6000612dc6826122d0565b612dd08185612db0565b9350612de08185602086016122ec565b80840191505092915050565b6000612df88285612dbb565b9150612e048284612dbb565b91508190509392505050565b7f4e487b7100000000000000000000000000000000000000000000000000000000600052601160045260246000fd5b6000612e4a8261238b565b9150612e558361238b565b925082821015612e6857612e67612e10565b5b828203905092915050565b7f4e487b7100000000000000000000000000000000000000000000000000000000600052603260045260246000fd5b7f4552433732313a207472616e736665722066726f6d20696e636f72726563742060008201527f6f776e6572000000000000000000000000000000000000000000000000000000602082015250565b6000612efe6025836122db565b9150612f0982612ea2565b604082019050919050565b60006020820190508181036000830152612f2d81612ef1565b9050919050565b7f4552433732313a207472616e7366657220746f20746865207a65726f2061646460008201527f7265737300000000000000000000000000000000000000000000000000000000602082015250565b6000612f906024836122db565b9150612f9b82612f34565b604082019050919050565b60006020820190508181036000830152612fbf81612f83565b9050919050565b7f45524337323155524953746f726167653a2055524920736574206f66206e6f6e60008201527f6578697374656e7420746f6b656e000000000000000000000000000000000000602082015250565b6000613022602e836122db565b915061302d82612fc6565b604082019050919050565b6000602082019050818103600083015261305181613015565b9050919050565b7f4552433732313a20617070726f766520746f2063616c6c657200000000000000600082015250565b600061308e6019836122db565b915061309982613058565b602082019050919050565b600060208201905081810360008301526130bd81613081565b9050919050565b7f4552433732313a207472616e7366657220746f206e6f6e20455243373231526560008201527f63656976657220696d706c656d656e7465720000000000000000000000000000602082015250565b60006131206032836122db565b915061312b826130c4565b604082019050919050565b6000602082019050818103600083015261314f81613113565b9050919050565b60006131618261238b565b915061316c8361238b565b9250827fffffffffffffffffffffffffffffffffffffffffffffffffffffffffffffffff038211156131a1576131a0612e10565b5b828201905092915050565b600081519050919050565b600082825260208201905092915050565b60006131d3826131ac565b6131dd81856131b7565b93506131ed8185602086016122ec565b6131f68161231f565b840191505092915050565b60006080820190506132166000830187612420565b6132236020830186612420565b6132306040830185612536565b818103606083015261324281846131c8565b905095945050505050565b60008151905061325c81612241565b92915050565b6000602082840312156132785761327761220b565b5b60006132868482850161324d565b91505092915050565b7f4e487b7100000000000000000000000000000000000000000000000000000000600052601260045260246000fd5b7f4552433732313a206d696e7420746f20746865207a65726f2061646472657373600082015250565b60006132f46020836122db565b91506132ff826132be565b602082019050919050565b60006020820190508181036000830152613323816132e7565b9050919050565b7f4552433732313a20746f6b656e20616c7265616479206d696e74656400000000600082015250565b6000613360601c836122db565b915061336b8261332a565b602082019050919050565b6000602082019050818103600083015261338f81613353565b905091905056fea26469706673582212209e244e23715c55def9af4803b35a5a86608cd96cc026dedf87936640918ef70064736f6c634300080d0033",
  "immutableReferences": {},
  "source": "// SPDX-License-Identifier: MIT\npragma solidity ^0.8.13;\n\nimport \"@openzeppelin/contracts/token/ERC721/ERC721.sol\";\nimport \"@openzeppelin/contracts/token/ERC721/extensions/ERC721URIStorage.sol\";\nimport \"@openzeppelin/contracts/utils/Counters.sol\";\nimport \"hardhat/console.sol\"; \n\ncontract ENCNFT is ERC721URIStorage {\n    using Counters for Counters.Counter;\n    Counters.Counter private _tokenIds;\n\n    struct EncryptData {\n        address currentOwner;\n        string encryptKeyForOwner;\n    }\n\n    mapping(uint256 => EncryptData[]) public tokenHistoryEncryption;\n    mapping(address => uint256[]) public tokenOwnersOfToken;\n\n    event NFTMinted(uint256);\n    address public marketplace;\n\n    constructor(address _marketplace) ERC721(\"Encoded NFT\", \"ENFT\") {\n        marketplace = _marketplace;\n    }\n\n    function mint(string memory _tokenURI, string memory decryptKeyForOwner)\n        external\n    {\n        _tokenIds.increment();\n        uint256 newTokenId = _tokenIds.current(); \n        _safeMint(msg.sender, newTokenId); \n        _setTokenURI(newTokenId, _tokenURI); \n        setApprovalForAll(marketplace, true); \n        tokenHistoryEncryption[newTokenId].push(\n            EncryptData(msg.sender, decryptKeyForOwner)\n        );\n        tokenOwnersOfToken[msg.sender].push(newTokenId);\n        emit NFTMinted(newTokenId);\n    }\n\n    function transferTokenWithEncryption( \n        address _to,\n        uint256 _tokenId,\n        bytes memory _data\n    ) external { \n        address currentOwner = ownerOf(_tokenId);\n        // require(false, \"msg.sender\",msg.sender.toString(), \" currentOwner: \", currentOwner.toString());\n        safeTransferFrom(currentOwner, _to, _tokenId, _data);\n        tokenHistoryEncryption[_tokenId].push(EncryptData(_to, string(_data)));\n        tokenOwnersOfToken[_to].push(_tokenId);\n    }\n\n    function getTokenInfoLastOwner(uint256 _tokenId)\n        external\n        view\n        returns (address owner, string memory encData)\n    {\n        EncryptData[] storage allHistoryTokenInfo = tokenHistoryEncryption[\n            _tokenId\n        ];\n        EncryptData storage lastOwnerInfo = allHistoryTokenInfo[\n            allHistoryTokenInfo.length - 1\n        ];\n        return (lastOwnerInfo.currentOwner, lastOwnerInfo.encryptKeyForOwner);\n    }\n\n    function getIdsByAddress(address owner)\n        external\n        view\n        returns (uint256[] memory)\n    {\n        return tokenOwnersOfToken[owner];\n    }\n}\n",
  "sourcePath": "/home/dev/Documents/MY/HACKATHON/OPTIMIZM/nft-marketplace/nft-marketplace/contracts/ethereum/EncNft.sol",
  "compiler": {
    "name": "solc",
    "version": "0.8.13+commit.abaa5c0e.Emscripten.clang"
  },
  "schemaVersion": "3.4.10",
  "updatedAt": "2022-11-29T19:36:14.116Z",
  "networkType": "ethereum",
  "devdoc": {
    "kind": "dev",
    "methods": {
      "approve(address,uint256)": {
        "details": "See {IERC721-approve}."
      },
      "balanceOf(address)": {
        "details": "See {IERC721-balanceOf}."
      },
      "getApproved(uint256)": {
        "details": "See {IERC721-getApproved}."
      },
      "isApprovedForAll(address,address)": {
        "details": "See {IERC721-isApprovedForAll}."
      },
      "name()": {
        "details": "See {IERC721Metadata-name}."
      },
      "ownerOf(uint256)": {
        "details": "See {IERC721-ownerOf}."
      },
      "safeTransferFrom(address,address,uint256)": {
        "details": "See {IERC721-safeTransferFrom}."
      },
      "safeTransferFrom(address,address,uint256,bytes)": {
        "details": "See {IERC721-safeTransferFrom}."
      },
      "setApprovalForAll(address,bool)": {
        "details": "See {IERC721-setApprovalForAll}."
      },
      "supportsInterface(bytes4)": {
        "details": "See {IERC165-supportsInterface}."
      },
      "symbol()": {
        "details": "See {IERC721Metadata-symbol}."
      },
      "tokenURI(uint256)": {
        "details": "See {IERC721Metadata-tokenURI}."
      },
      "transferFrom(address,address,uint256)": {
        "details": "See {IERC721-transferFrom}."
      }
    },
    "version": 1
  },
  "userdoc": {
    "kind": "user",
    "methods": {},
    "version": 1
  }
}