{
  "contractName": "Marketplace",
  "abi": [
    {
      "inputs": [],
      "stateMutability": "nonpayable",
      "type": "constructor"
    },
    {
      "anonymous": false,
      "inputs": [
        {
          "indexed": false,
          "internalType": "uint256",
          "name": "idToken",
          "type": "uint256"
        },
        {
          "indexed": false,
          "internalType": "address",
          "name": "buyerAddress",
          "type": "address"
        },
        {
          "indexed": false,
          "internalType": "uint256",
          "name": "bet",
          "type": "uint256"
        }
      ],
      "name": "BuyerMadeBet",
      "type": "event"
    },
    {
      "anonymous": false,
      "inputs": [
        {
          "indexed": false,
          "internalType": "uint256",
          "name": "idToken",
          "type": "uint256"
        },
        {
          "indexed": false,
          "internalType": "address",
          "name": "buyerAddress",
          "type": "address"
        },
        {
          "indexed": false,
          "internalType": "uint256",
          "name": "bet",
          "type": "uint256"
        }
      ],
      "name": "BuyerWithdrewBet",
      "type": "event"
    },
    {
      "anonymous": false,
      "inputs": [
        {
          "indexed": false,
          "internalType": "address",
          "name": "nftContract",
          "type": "address"
        },
        {
          "indexed": false,
          "internalType": "uint256",
          "name": "tokenId",
          "type": "uint256"
        },
        {
          "indexed": false,
          "internalType": "address",
          "name": "seller",
          "type": "address"
        },
        {
          "indexed": false,
          "internalType": "address",
          "name": "owner",
          "type": "address"
        },
        {
          "indexed": false,
          "internalType": "uint256",
          "name": "price",
          "type": "uint256"
        }
      ],
      "name": "NFTListed",
      "type": "event"
    },
    {
      "anonymous": false,
      "inputs": [
        {
          "indexed": false,
          "internalType": "address",
          "name": "nftContract",
          "type": "address"
        },
        {
          "indexed": false,
          "internalType": "uint256",
          "name": "tokenId",
          "type": "uint256"
        },
        {
          "indexed": false,
          "internalType": "address",
          "name": "seller",
          "type": "address"
        },
        {
          "indexed": false,
          "internalType": "address",
          "name": "owner",
          "type": "address"
        },
        {
          "indexed": false,
          "internalType": "uint256",
          "name": "price",
          "type": "uint256"
        }
      ],
      "name": "NFTSold",
      "type": "event"
    },
    {
      "anonymous": false,
      "inputs": [
        {
          "indexed": false,
          "internalType": "uint256",
          "name": "idToken",
          "type": "uint256"
        },
        {
          "indexed": false,
          "internalType": "address",
          "name": "buyerAddress",
          "type": "address"
        }
      ],
      "name": "NewOwner",
      "type": "event"
    },
    {
      "anonymous": false,
      "inputs": [
        {
          "indexed": false,
          "internalType": "uint256",
          "name": "idToken",
          "type": "uint256"
        },
        {
          "indexed": false,
          "internalType": "address",
          "name": "buyerAddress",
          "type": "address"
        },
        {
          "indexed": false,
          "internalType": "string",
          "name": "message",
          "type": "string"
        }
      ],
      "name": "TokenForSell",
      "type": "event"
    },
    {
      "anonymous": false,
      "inputs": [
        {
          "indexed": false,
          "internalType": "uint256",
          "name": "idToken",
          "type": "uint256"
        },
        {
          "indexed": false,
          "internalType": "address",
          "name": "sellerAddress",
          "type": "address"
        },
        {
          "indexed": false,
          "internalType": "uint256",
          "name": "sum",
          "type": "uint256"
        }
      ],
      "name": "sellerWithdrewSum",
      "type": "event"
    },
    {
      "inputs": [],
      "name": "LISTING_FEE",
      "outputs": [
        {
          "internalType": "uint256",
          "name": "",
          "type": "uint256"
        }
      ],
      "stateMutability": "view",
      "type": "function",
      "constant": true
    },
    {
      "inputs": [
        {
          "internalType": "uint256",
          "name": "",
          "type": "uint256"
        },
        {
          "internalType": "uint256",
          "name": "",
          "type": "uint256"
        }
      ],
      "name": "buyersBoard",
      "outputs": [
        {
          "internalType": "address",
          "name": "buyerAddress",
          "type": "address"
        },
        {
          "internalType": "string",
          "name": "buyerPublicKey",
          "type": "string"
        },
        {
          "internalType": "uint256",
          "name": "buyerBet",
          "type": "uint256"
        },
        {
          "internalType": "string",
          "name": "goalOfPurchase",
          "type": "string"
        }
      ],
      "stateMutability": "view",
      "type": "function",
      "constant": true
    },
    {
      "inputs": [
        {
          "internalType": "uint256",
          "name": "",
          "type": "uint256"
        },
        {
          "internalType": "uint256",
          "name": "",
          "type": "uint256"
        }
      ],
      "name": "sellersBoard",
      "outputs": [
        {
          "internalType": "address",
          "name": "sellerAddress",
          "type": "address"
        },
        {
          "internalType": "uint256",
          "name": "deadline",
          "type": "uint256"
        },
        {
          "internalType": "uint256",
          "name": "sellerSum",
          "type": "uint256"
        }
      ],
      "stateMutability": "view",
      "type": "function",
      "constant": true
    },
    {
      "inputs": [
        {
          "internalType": "address",
          "name": "_nftContract",
          "type": "address"
        }
      ],
      "name": "setNFTContract",
      "outputs": [],
      "stateMutability": "nonpayable",
      "type": "function"
    },
    {
      "inputs": [
        {
          "internalType": "address",
          "name": "_nftContract",
          "type": "address"
        },
        {
          "internalType": "uint256",
          "name": "_tokenId",
          "type": "uint256"
        },
        {
          "internalType": "uint256",
          "name": "_price",
          "type": "uint256"
        }
      ],
      "name": "listNft",
      "outputs": [],
      "stateMutability": "payable",
      "type": "function",
      "payable": true
    },
    {
      "inputs": [
        {
          "internalType": "address",
          "name": "_nftContract",
          "type": "address"
        },
        {
          "internalType": "uint256",
          "name": "_tokenId",
          "type": "uint256"
        }
      ],
      "name": "buyNft",
      "outputs": [],
      "stateMutability": "payable",
      "type": "function",
      "payable": true
    },
    {
      "inputs": [
        {
          "internalType": "address",
          "name": "_nftContract",
          "type": "address"
        },
        {
          "internalType": "uint256",
          "name": "_tokenId",
          "type": "uint256"
        },
        {
          "internalType": "uint256",
          "name": "_price",
          "type": "uint256"
        }
      ],
      "name": "resellNft",
      "outputs": [],
      "stateMutability": "payable",
      "type": "function",
      "payable": true
    },
    {
      "inputs": [],
      "name": "getListingFee",
      "outputs": [
        {
          "internalType": "uint256",
          "name": "",
          "type": "uint256"
        }
      ],
      "stateMutability": "view",
      "type": "function",
      "constant": true
    },
    {
      "inputs": [],
      "name": "getListedNfts",
      "outputs": [
        {
          "components": [
            {
              "internalType": "address",
              "name": "nftContract",
              "type": "address"
            },
            {
              "internalType": "uint256",
              "name": "tokenId",
              "type": "uint256"
            },
            {
              "internalType": "address payable",
              "name": "seller",
              "type": "address"
            },
            {
              "internalType": "address payable",
              "name": "owner",
              "type": "address"
            },
            {
              "internalType": "uint256",
              "name": "price",
              "type": "uint256"
            },
            {
              "internalType": "bool",
              "name": "listed",
              "type": "bool"
            }
          ],
          "internalType": "struct Marketplace.NFT[]",
          "name": "",
          "type": "tuple[]"
        }
      ],
      "stateMutability": "view",
      "type": "function",
      "constant": true
    },
    {
      "inputs": [],
      "name": "getMyNfts",
      "outputs": [
        {
          "components": [
            {
              "internalType": "address",
              "name": "nftContract",
              "type": "address"
            },
            {
              "internalType": "uint256",
              "name": "tokenId",
              "type": "uint256"
            },
            {
              "internalType": "address payable",
              "name": "seller",
              "type": "address"
            },
            {
              "internalType": "address payable",
              "name": "owner",
              "type": "address"
            },
            {
              "internalType": "uint256",
              "name": "price",
              "type": "uint256"
            },
            {
              "internalType": "bool",
              "name": "listed",
              "type": "bool"
            }
          ],
          "internalType": "struct Marketplace.NFT[]",
          "name": "",
          "type": "tuple[]"
        }
      ],
      "stateMutability": "view",
      "type": "function",
      "constant": true
    },
    {
      "inputs": [
        {
          "internalType": "uint256",
          "name": "nftId",
          "type": "uint256"
        }
      ],
      "name": "getMyListedNft",
      "outputs": [
        {
          "components": [
            {
              "internalType": "address",
              "name": "nftContract",
              "type": "address"
            },
            {
              "internalType": "uint256",
              "name": "tokenId",
              "type": "uint256"
            },
            {
              "internalType": "address payable",
              "name": "seller",
              "type": "address"
            },
            {
              "internalType": "address payable",
              "name": "owner",
              "type": "address"
            },
            {
              "internalType": "uint256",
              "name": "price",
              "type": "uint256"
            },
            {
              "internalType": "bool",
              "name": "listed",
              "type": "bool"
            }
          ],
          "internalType": "struct Marketplace.NFT",
          "name": "",
          "type": "tuple"
        }
      ],
      "stateMutability": "view",
      "type": "function",
      "constant": true
    },
    {
      "inputs": [],
      "name": "getMyListedNfts",
      "outputs": [
        {
          "components": [
            {
              "internalType": "address",
              "name": "nftContract",
              "type": "address"
            },
            {
              "internalType": "uint256",
              "name": "tokenId",
              "type": "uint256"
            },
            {
              "internalType": "address payable",
              "name": "seller",
              "type": "address"
            },
            {
              "internalType": "address payable",
              "name": "owner",
              "type": "address"
            },
            {
              "internalType": "uint256",
              "name": "price",
              "type": "uint256"
            },
            {
              "internalType": "bool",
              "name": "listed",
              "type": "bool"
            }
          ],
          "internalType": "struct Marketplace.NFT[]",
          "name": "",
          "type": "tuple[]"
        }
      ],
      "stateMutability": "view",
      "type": "function",
      "constant": true
    },
    {
      "inputs": [
        {
          "internalType": "uint256",
          "name": "idToken",
          "type": "uint256"
        },
        {
          "internalType": "string",
          "name": "buyerPublicKey",
          "type": "string"
        },
        {
          "internalType": "address",
          "name": "buyerAddress",
          "type": "address"
        },
        {
          "internalType": "string",
          "name": "goalPurchase",
          "type": "string"
        }
      ],
      "name": "makeBet",
      "outputs": [],
      "stateMutability": "payable",
      "type": "function",
      "payable": true
    },
    {
      "inputs": [
        {
          "internalType": "uint256",
          "name": "idToken",
          "type": "uint256"
        }
      ],
      "name": "getSellerById",
      "outputs": [
        {
          "components": [
            {
              "internalType": "address",
              "name": "sellerAddress",
              "type": "address"
            },
            {
              "internalType": "uint256",
              "name": "deadline",
              "type": "uint256"
            },
            {
              "internalType": "uint256",
              "name": "sellerSum",
              "type": "uint256"
            }
          ],
          "internalType": "struct Marketplace.SellerData[]",
          "name": "",
          "type": "tuple[]"
        }
      ],
      "stateMutability": "view",
      "type": "function",
      "constant": true
    },
    {
      "inputs": [
        {
          "internalType": "uint256",
          "name": "idToken",
          "type": "uint256"
        }
      ],
      "name": "getCountSellers",
      "outputs": [
        {
          "internalType": "uint256",
          "name": "",
          "type": "uint256"
        }
      ],
      "stateMutability": "view",
      "type": "function",
      "constant": true
    },
    {
      "inputs": [
        {
          "internalType": "uint256",
          "name": "idToken",
          "type": "uint256"
        }
      ],
      "name": "getCountBuyers",
      "outputs": [
        {
          "internalType": "uint256",
          "name": "",
          "type": "uint256"
        }
      ],
      "stateMutability": "view",
      "type": "function",
      "constant": true
    },
    {
      "inputs": [
        {
          "internalType": "uint256",
          "name": "idToken",
          "type": "uint256"
        }
      ],
      "name": "getBuyersById",
      "outputs": [
        {
          "components": [
            {
              "internalType": "address",
              "name": "buyerAddress",
              "type": "address"
            },
            {
              "internalType": "string",
              "name": "buyerPublicKey",
              "type": "string"
            },
            {
              "internalType": "uint256",
              "name": "buyerBet",
              "type": "uint256"
            },
            {
              "internalType": "string",
              "name": "goalOfPurchase",
              "type": "string"
            }
          ],
          "internalType": "struct Marketplace.BuyerData[]",
          "name": "",
          "type": "tuple[]"
        }
      ],
      "stateMutability": "view",
      "type": "function",
      "constant": true
    },
    {
      "inputs": [
        {
          "internalType": "uint256",
          "name": "idToken",
          "type": "uint256"
        }
      ],
      "name": "buyerWithdrawBet",
      "outputs": [],
      "stateMutability": "nonpayable",
      "type": "function"
    },
    {
      "inputs": [
        {
          "internalType": "uint256",
          "name": "idToken",
          "type": "uint256"
        }
      ],
      "name": "sellerWithdrawSum",
      "outputs": [],
      "stateMutability": "nonpayable",
      "type": "function"
    },
    {
      "inputs": [
        {
          "internalType": "uint256",
          "name": "idToken",
          "type": "uint256"
        },
        {
          "internalType": "address",
          "name": "buyerAddress",
          "type": "address"
        },
        {
          "internalType": "bytes",
          "name": "data",
          "type": "bytes"
        }
      ],
      "name": "acceptRateAndTransferToken",
      "outputs": [],
      "stateMutability": "nonpayable",
      "type": "function"
    },
    {
      "inputs": [
        {
          "internalType": "uint256",
          "name": "idToken",
          "type": "uint256"
        },
        {
          "internalType": "address",
          "name": "buyerAddress",
          "type": "address"
        }
      ],
      "name": "getBuyerIndex",
      "outputs": [
        {
          "internalType": "uint256",
          "name": "buyerIndex",
          "type": "uint256"
        }
      ],
      "stateMutability": "view",
      "type": "function",
      "constant": true
    },
    {
      "inputs": [
        {
          "internalType": "uint256",
          "name": "idToken",
          "type": "uint256"
        },
        {
          "internalType": "address",
          "name": "sellerAddress",
          "type": "address"
        }
      ],
      "name": "getSellerIndex",
      "outputs": [
        {
          "internalType": "uint256",
          "name": "sellerIndex",
          "type": "uint256"
        }
      ],
      "stateMutability": "view",
      "type": "function",
      "constant": true
    },
    {
      "inputs": [
        {
          "internalType": "uint256",
          "name": "idToken",
          "type": "uint256"
        },
        {
          "internalType": "string",
          "name": "message",
          "type": "string"
        },
        {
          "internalType": "uint256",
          "name": "_price",
          "type": "uint256"
        },
        {
          "internalType": "address",
          "name": "_nftContract",
          "type": "address"
        }
      ],
      "name": "moveTokenForSell",
      "outputs": [],
      "stateMutability": "payable",
      "type": "function",
      "payable": true
    },
    {
      "inputs": [
        {
          "internalType": "uint256",
          "name": "idToken",
          "type": "uint256"
        },
        {
          "internalType": "string",
          "name": "message",
          "type": "string"
        }
      ],
      "name": "removeTokenFromMarketPlace",
      "outputs": [],
      "stateMutability": "nonpayable",
      "type": "function"
    },
    {
      "inputs": [
        {
          "internalType": "uint256",
          "name": "_tokenId",
          "type": "uint256"
        },
        {
          "internalType": "address",
          "name": "owner",
          "type": "address"
        }
      ],
      "name": "getOwnerInfo",
      "outputs": [
        {
          "internalType": "string",
          "name": "balance",
          "type": "string"
        }
      ],
      "stateMutability": "view",
      "type": "function",
      "constant": true
    }
  ],
  "bytecode": "0x6080604052655af3107a400060035534801561001a57600080fd5b50600160008190555033600560006101000a81548173ffffffffffffffffffffffffffffffffffffffff021916908373ffffffffffffffffffffffffffffffffffffffff16021790555061489b806100736000396000f3fe6080604052600436106101665760003560e01c80635cdfd1e4116100d1578063b0edf9a41161008a578063b8fe6abe11610064578063b8fe6abe14610541578063c922b17c1461056c578063cf107b0314610588578063f765a880146105c557610166565b8063b0edf9a41461048a578063b5540aa5146104c7578063b6a12a511461050457610166565b80635cdfd1e414610354578063664179811461037d5780637b52ade6146103bc5780638d6cb3fb146103f95780639d0ec38014610424578063a7ccabdf1461046157610166565b80631f4cc4db116101235780631f4cc4db146102815780632b86ae38146102ac57806331aa011d146102d757806334f5b624146102f3578063443e20371461030f5780634ddf4f8f1461033857610166565b8063030b4f4e1461016b57806303965f6214610187578063047b07bf146101c757806314bb9abe146101f2578063195b09de1461021b57806319c4ab2914610258575b600080fd5b61018560048036038101906101809190613450565b610602565b005b34801561019357600080fd5b506101ae60048036038101906101a991906134d3565b610a60565b6040516101be94939291906135b9565b60405180910390f35b3480156101d357600080fd5b506101dc610bdd565b6040516101e99190613790565b60405180910390f35b3480156101fe57600080fd5b50610219600480360381019061021491906137b2565b610f10565b005b34801561022757600080fd5b50610242600480360381019061023d91906137b2565b6110b5565b60405161024f91906137df565b60405180910390f35b34801561026457600080fd5b5061027f600480360381019061027a91906137b2565b6110d5565b005b34801561028d57600080fd5b5061029661127a565b6040516102a39190613790565b60405180910390f35b3480156102b857600080fd5b506102c161161f565b6040516102ce91906137df565b60405180910390f35b6102f160048036038101906102ec91906137fa565b611625565b005b61030d60048036038101906103089190613899565b6118f3565b005b34801561031b57600080fd5b50610336600480360381019061033191906138ec565b611b0b565b005b610352600480360381019061034d9190613948565b611b4a565b005b34801561036057600080fd5b5061037b60048036038101906103769190613a29565b611ddd565b005b34801561038957600080fd5b506103a4600480360381019061039f91906134d3565b612230565b6040516103b393929190613a98565b60405180910390f35b3480156103c857600080fd5b506103e360048036038101906103de91906137b2565b612297565b6040516103f09190613c45565b60405180910390f35b34801561040557600080fd5b5061040e612493565b60405161041b9190613790565b60405180910390f35b34801561043057600080fd5b5061044b600480360381019061044691906137b2565b6126fb565b6040516104589190613d58565b60405180910390f35b34801561046d57600080fd5b5061048860048036038101906104839190613d7a565b6127dd565b005b34801561049657600080fd5b506104b160048036038101906104ac9190613da7565b612821565b6040516104be91906137df565b60405180910390f35b3480156104d357600080fd5b506104ee60048036038101906104e991906137b2565b6128f0565b6040516104fb91906137df565b60405180910390f35b34801561051057600080fd5b5061052b60048036038101906105269190613da7565b612910565b60405161053891906137df565b60405180910390f35b34801561054d57600080fd5b506105566129df565b60405161056391906137df565b60405180910390f35b61058660048036038101906105819190613899565b6129e9565b005b34801561059457600080fd5b506105af60048036038101906105aa91906137b2565b612c5f565b6040516105bc9190613e62565b60405180910390f35b3480156105d157600080fd5b506105ec60048036038101906105e79190613da7565b612dbd565b6040516105f99190613e7d565b60405180910390f35b61060a612ece565b600354341461064e576040517f08c379a000000000000000000000000000000000000000000000000000000000815260040161064590613eeb565b60405180910390fd5b6000600460009054906101000a900473ffffffffffffffffffffffffffffffffffffffff1673ffffffffffffffffffffffffffffffffffffffff16636352211e866040518263ffffffff1660e01b81526004016106ab91906137df565b602060405180830381865afa1580156106c8573d6000803e3d6000fd5b505050506040513d601f19601f820116820180604052508101906106ec9190613f20565b90503373ffffffffffffffffffffffffffffffffffffffff168173ffffffffffffffffffffffffffffffffffffffff161461075c576040517f08c379a000000000000000000000000000000000000000000000000000000000815260040161075390613fbf565b60405180910390fd5b6107666002612f1d565b6040518060c001604052808373ffffffffffffffffffffffffffffffffffffffff1681526020018681526020013373ffffffffffffffffffffffffffffffffffffffff1681526020013373ffffffffffffffffffffffffffffffffffffffff168152602001848152602001600115158152506006600087815260200190815260200160002060008201518160000160006101000a81548173ffffffffffffffffffffffffffffffffffffffff021916908373ffffffffffffffffffffffffffffffffffffffff1602179055506020820151816001015560408201518160020160006101000a81548173ffffffffffffffffffffffffffffffffffffffff021916908373ffffffffffffffffffffffffffffffffffffffff16021790555060608201518160030160006101000a81548173ffffffffffffffffffffffffffffffffffffffff021916908373ffffffffffffffffffffffffffffffffffffffff1602179055506080820151816004015560a08201518160050160006101000a81548160ff0219169083151502179055509050507fa0c6c0d02d86fdacecbaa5fdf5894bab204e31a778250474108540733a9b8d19828633338760405161092e959493929190613fdf565b60405180910390a16008600086815260200190815260200160002060405180606001604052803373ffffffffffffffffffffffffffffffffffffffff168152602001610986620f424042612f3390919063ffffffff16565b81526020016000815250908060018154018082558091505060019003906000526020600020906003020160009091909190915060008201518160000160006101000a81548173ffffffffffffffffffffffffffffffffffffffff021916908373ffffffffffffffffffffffffffffffffffffffff160217905550602082015181600101556040820151816002015550507fa621f3c578ccec4c2281ee2f069b7f0f599322063cd5237b5583fd654051e0ae853386604051610a4993929190614032565b60405180910390a150610a5a612f49565b50505050565b60076020528160005260406000208181548110610a7c57600080fd5b9060005260206000209060040201600091509150508060000160009054906101000a900473ffffffffffffffffffffffffffffffffffffffff1690806001018054610ac69061409f565b80601f0160208091040260200160405190810160405280929190818152602001828054610af29061409f565b8015610b3f5780601f10610b1457610100808354040283529160200191610b3f565b820191906000526020600020905b815481529060010190602001808311610b2257829003601f168201915b505050505090806002015490806003018054610b5a9061409f565b80601f0160208091040260200160405190810160405280929190818152602001828054610b869061409f565b8015610bd35780601f10610ba857610100808354040283529160200191610bd3565b820191906000526020600020905b815481529060010190602001808311610bb657829003601f168201915b5050505050905084565b60606000610beb6002612f53565b90506000805b82811015610c90573373ffffffffffffffffffffffffffffffffffffffff1660066000600184610c2191906140ff565b815260200190815260200160002060030160009054906101000a900473ffffffffffffffffffffffffffffffffffffffff1673ffffffffffffffffffffffffffffffffffffffff1603610c7d578180610c7990614155565b9250505b8080610c8890614155565b915050610bf1565b5060008167ffffffffffffffff811115610cad57610cac6132c7565b5b604051908082528060200260200182016040528015610ce657816020015b610cd3613145565b815260200190600190039081610ccb5790505b5090506000805b84811015610f05573373ffffffffffffffffffffffffffffffffffffffff1660066000600184610d1d91906140ff565b815260200190815260200160002060030160009054906101000a900473ffffffffffffffffffffffffffffffffffffffff1673ffffffffffffffffffffffffffffffffffffffff1603610ef25760066000600183610d7b91906140ff565b81526020019081526020016000206040518060c00160405290816000820160009054906101000a900473ffffffffffffffffffffffffffffffffffffffff1673ffffffffffffffffffffffffffffffffffffffff1673ffffffffffffffffffffffffffffffffffffffff168152602001600182015481526020016002820160009054906101000a900473ffffffffffffffffffffffffffffffffffffffff1673ffffffffffffffffffffffffffffffffffffffff1673ffffffffffffffffffffffffffffffffffffffff1681526020016003820160009054906101000a900473ffffffffffffffffffffffffffffffffffffffff1673ffffffffffffffffffffffffffffffffffffffff1673ffffffffffffffffffffffffffffffffffffffff168152602001600482015481526020016005820160009054906101000a900460ff161515151581525050838381518110610ed857610ed761419d565b5b60200260200101819052508180610eee90614155565b9250505b8080610efd90614155565b915050610ced565b508194505050505090565b6000610f1c8233612910565b90506000803373ffffffffffffffffffffffffffffffffffffffff16600760008681526020019081526020016000208481548110610f5d57610f5c61419d565b5b906000526020600020906004020160020154604051610f7b906141fd565b60006040518083038185875af1925050503d8060008114610fb8576040519150601f19603f3d011682016040523d82523d6000602084013e610fbd565b606091505b509150915081611002576040517f08c379a0000000000000000000000000000000000000000000000000000000008152600401610ff99061425e565b60405180910390fd5b7f98ccdb6ca1b391b9d00c4b39b242ef445e5d59bd02b7ae2687c2ed3e6cc994f0843360076000888152602001908152602001600020868154811061104a5761104961419d565b5b90600052602060002090600402016002015460405161106b9392919061427e565b60405180910390a1600060076000868152602001908152602001600020848154811061109a5761109961419d565b5b90600052602060002090600402016002018190555050505050565b600060086000838152602001908152602001600020805490509050919050565b60006110e18233612821565b90506000803373ffffffffffffffffffffffffffffffffffffffff166008600086815260200190815260200160002084815481106111225761112161419d565b5b906000526020600020906003020160020154604051611140906141fd565b60006040518083038185875af1925050503d806000811461117d576040519150601f19603f3d011682016040523d82523d6000602084013e611182565b606091505b5091509150816111c7576040517f08c379a00000000000000000000000000000000000000000000000000000000081526004016111be9061425e565b60405180910390fd5b7fc18f79f69c42ef161d163d5c4c1f3264b416f96d4e2a6ce5b3fbbaa7d826d94a843360086000888152602001908152602001600020868154811061120f5761120e61419d565b5b9060005260206000209060030201600201546040516112309392919061427e565b60405180910390a1600060086000868152602001908152602001600020848154811061125f5761125e61419d565b5b90600052602060002090600302016002018190555050505050565b606060006112886002612f53565b90506000805b82811015611366573373ffffffffffffffffffffffffffffffffffffffff16600660006001846112be91906140ff565b815260200190815260200160002060020160009054906101000a900473ffffffffffffffffffffffffffffffffffffffff1673ffffffffffffffffffffffffffffffffffffffff1614801561133f57506006600060018361131f91906140ff565b815260200190815260200160002060050160009054906101000a900460ff165b1561135357818061134f90614155565b9250505b808061135e90614155565b91505061128e565b5060008167ffffffffffffffff811115611383576113826132c7565b5b6040519080825280602002602001820160405280156113bc57816020015b6113a9613145565b8152602001906001900390816113a15790505b5090506000805b84811015611614573373ffffffffffffffffffffffffffffffffffffffff16600660006001846113f391906140ff565b815260200190815260200160002060020160009054906101000a900473ffffffffffffffffffffffffffffffffffffffff1673ffffffffffffffffffffffffffffffffffffffff1614801561147457506006600060018361145491906140ff565b815260200190815260200160002060050160009054906101000a900460ff165b15611601576006600060018361148a91906140ff565b81526020019081526020016000206040518060c00160405290816000820160009054906101000a900473ffffffffffffffffffffffffffffffffffffffff1673ffffffffffffffffffffffffffffffffffffffff1673ffffffffffffffffffffffffffffffffffffffff168152602001600182015481526020016002820160009054906101000a900473ffffffffffffffffffffffffffffffffffffffff1673ffffffffffffffffffffffffffffffffffffffff1673ffffffffffffffffffffffffffffffffffffffff1681526020016003820160009054906101000a900473ffffffffffffffffffffffffffffffffffffffff1673ffffffffffffffffffffffffffffffffffffffff1673ffffffffffffffffffffffffffffffffffffffff168152602001600482015481526020016005820160009054906101000a900460ff1615151515815250508383815181106115e7576115e661419d565b5b602002602001018190525081806115fd90614155565b9250505b808061160c90614155565b9150506113c3565b508194505050505090565b60035481565b60003403611668576040517f08c379a000000000000000000000000000000000000000000000000000000000815260040161165f90614301565b60405180910390fd5b60006116748584612910565b90506000600760008781526020019081526020016000208054905011801561171d57508273ffffffffffffffffffffffffffffffffffffffff166007600087815260200190815260200160002082815481106116d3576116d261419d565b5b906000526020600020906004020160000160009054906101000a900473ffffffffffffffffffffffffffffffffffffffff1673ffffffffffffffffffffffffffffffffffffffff16145b156117b057600061176d3460076000898152602001908152602001600020848154811061174d5761174c61419d565b5b906000526020600020906004020160020154612f3390919063ffffffff16565b9050806007600088815260200190815260200160002083815481106117955761179461419d565b5b906000526020600020906004020160020181905550506118b1565b6007600086815260200190815260200160002060405180608001604052808573ffffffffffffffffffffffffffffffffffffffff16815260200186815260200134815260200184815250908060018154018082558091505060019003906000526020600020906004020160009091909190915060008201518160000160006101000a81548173ffffffffffffffffffffffffffffffffffffffff021916908373ffffffffffffffffffffffffffffffffffffffff16021790555060208201518160010190805190602001906118869291906131bf565b506040820151816002015560608201518160030190805190602001906118ad9291906131bf565b5050505b7fdf69adb2dfb31a73e8980f500a6d69055d1debc3dd097c87db248299e486219f8584346040516118e49392919061427e565b60405180910390a15050505050565b6118fb612ece565b6000811161193e576040517f08c379a00000000000000000000000000000000000000000000000000000000081526004016119359061436d565b60405180910390fd5b6003543414611982576040517f08c379a000000000000000000000000000000000000000000000000000000000815260040161197990613eeb565b60405180910390fd5b8273ffffffffffffffffffffffffffffffffffffffff166323b872dd3330856040518463ffffffff1660e01b81526004016119bf9392919061438d565b600060405180830381600087803b1580156119d957600080fd5b505af11580156119ed573d6000803e3d6000fd5b505050506000600660008481526020019081526020016000209050338160020160006101000a81548173ffffffffffffffffffffffffffffffffffffffff021916908373ffffffffffffffffffffffffffffffffffffffff160217905550308160030160006101000a81548173ffffffffffffffffffffffffffffffffffffffff021916908373ffffffffffffffffffffffffffffffffffffffff16021790555060018160050160006101000a81548160ff021916908315150217905550818160040181905550611abe6001612f61565b7fa0c6c0d02d86fdacecbaa5fdf5894bab204e31a778250474108540733a9b8d198484333086604051611af5959493929190613fdf565b60405180910390a150611b06612f49565b505050565b7fa621f3c578ccec4c2281ee2f069b7f0f599322063cd5237b5583fd654051e0ae823383604051611b3e93929190614032565b60405180910390a15050565b611b52612ece565b60006006600083815260200190815260200160002090508060040154341015611bb0576040517f08c379a0000000000000000000000000000000000000000000000000000000008152600401611ba790614436565b60405180910390fd5b60003390508160020160009054906101000a900473ffffffffffffffffffffffffffffffffffffffff1673ffffffffffffffffffffffffffffffffffffffff166108fc349081150290604051600060405180830381858888f19350505050158015611c1f573d6000803e3d6000fd5b508373ffffffffffffffffffffffffffffffffffffffff166323b872dd308385600101546040518463ffffffff1660e01b8152600401611c61939291906144b5565b600060405180830381600087803b158015611c7b57600080fd5b505af1158015611c8f573d6000803e3d6000fd5b50505050600560009054906101000a900473ffffffffffffffffffffffffffffffffffffffff1673ffffffffffffffffffffffffffffffffffffffff166108fc6003549081150290604051600060405180830381858888f19350505050158015611cfd573d6000803e3d6000fd5b50808260030160006101000a81548173ffffffffffffffffffffffffffffffffffffffff021916908373ffffffffffffffffffffffffffffffffffffffff16021790555060008260050160006101000a81548160ff021916908315150217905550611d686001612f1d565b7f16f1dbd97e6bf646d429ed186cce832f1f7fd9907814293b83181e9970ab7bd28483600101548460020160009054906101000a900473ffffffffffffffffffffffffffffffffffffffff168434604051611dc79594939291906144ec565b60405180910390a15050611dd9612f49565b5050565b6000611de98484612910565b90506000611df78533612821565b9050600460009054906101000a900473ffffffffffffffffffffffffffffffffffffffff1673ffffffffffffffffffffffffffffffffffffffff1663c215268c8587866040518463ffffffff1660e01b8152600401611e5893929190614594565b600060405180830381600087803b158015611e7257600080fd5b505af1158015611e86573d6000803e3d6000fd5b505050506000600660008781526020019081526020016000209050848160020160006101000a81548173ffffffffffffffffffffffffffffffffffffffff021916908373ffffffffffffffffffffffffffffffffffffffff160217905550848160030160006101000a81548173ffffffffffffffffffffffffffffffffffffffff021916908373ffffffffffffffffffffffffffffffffffffffff16021790555060018160050160006101000a81548160ff021916908315150217905550600760008781526020019081526020016000208381548110611f6957611f6861419d565b5b90600052602060002090600402016002015481600401819055507fa0c6c0d02d86fdacecbaa5fdf5894bab204e31a778250474108540733a9b8d19600460009054906101000a900473ffffffffffffffffffffffffffffffffffffffff16878788600760008c81526020019081526020016000208881548110611fef57611fee61419d565b5b906000526020600020906004020160020154604051612012959493929190613fdf565b60405180910390a16120996007600088815260200190815260200160002084815481106120425761204161419d565b5b9060005260206000209060040201600201546008600089815260200190815260200160002084815481106120795761207861419d565b5b906000526020600020906003020160020154612f3390919063ffffffff16565b6008600088815260200190815260200160002083815481106120be576120bd61419d565b5b90600052602060002090600302016002018190555060006007600088815260200190815260200160002084815481106120fa576120f961419d565b5b9060005260206000209060040201600201819055506008600087815260200190815260200160002060405180606001604052808773ffffffffffffffffffffffffffffffffffffffff16815260200161215f620f424042612f3390919063ffffffff16565b81526020016000815250908060018154018082558091505060019003906000526020600020906003020160009091909190915060008201518160000160006101000a81548173ffffffffffffffffffffffffffffffffffffffff021916908373ffffffffffffffffffffffffffffffffffffffff160217905550602082015181600101556040820151816002015550507f4c5d8ccfd4f32dad0c449108334c94e0bada87b1453ad71e79e233545f4c48a686866040516122209291906145d2565b60405180910390a1505050505050565b6008602052816000526040600020818154811061224c57600080fd5b9060005260206000209060030201600091509150508060000160009054906101000a900473ffffffffffffffffffffffffffffffffffffffff16908060010154908060020154905083565b6060600060076000848152602001908152602001600020905080805480602002602001604051908101604052809291908181526020016000905b8282101561248757838290600052602060002090600402016040518060800160405290816000820160009054906101000a900473ffffffffffffffffffffffffffffffffffffffff1673ffffffffffffffffffffffffffffffffffffffff1673ffffffffffffffffffffffffffffffffffffffff16815260200160018201805461235a9061409f565b80601f01602080910402602001604051908101604052809291908181526020018280546123869061409f565b80156123d35780601f106123a8576101008083540402835291602001916123d3565b820191906000526020600020905b8154815290600101906020018083116123b657829003601f168201915b50505050508152602001600282015481526020016003820180546123f69061409f565b80601f01602080910402602001604051908101604052809291908181526020018280546124229061409f565b801561246f5780601f106124445761010080835404028352916020019161246f565b820191906000526020600020905b81548152906001019060200180831161245257829003601f168201915b505050505081525050815260200190600101906122d1565b50505050915050919050565b606060006124a16002612f53565b905060006124af6001612f53565b826124ba91906145fb565b905060008167ffffffffffffffff8111156124d8576124d76132c7565b5b60405190808252806020026020018201604052801561251157816020015b6124fe613145565b8152602001906001900390816124f65790505b5090506000805b848110156126f0576006600060018361253191906140ff565b815260200190815260200160002060050160009054906101000a900460ff16156126dd576006600060018361256691906140ff565b81526020019081526020016000206040518060c00160405290816000820160009054906101000a900473ffffffffffffffffffffffffffffffffffffffff1673ffffffffffffffffffffffffffffffffffffffff1673ffffffffffffffffffffffffffffffffffffffff168152602001600182015481526020016002820160009054906101000a900473ffffffffffffffffffffffffffffffffffffffff1673ffffffffffffffffffffffffffffffffffffffff1673ffffffffffffffffffffffffffffffffffffffff1681526020016003820160009054906101000a900473ffffffffffffffffffffffffffffffffffffffff1673ffffffffffffffffffffffffffffffffffffffff1673ffffffffffffffffffffffffffffffffffffffff168152602001600482015481526020016005820160009054906101000a900460ff1615151515815250508383815181106126c3576126c261419d565b5b602002602001018190525081806126d990614155565b9250505b80806126e890614155565b915050612518565b508194505050505090565b6060600060086000848152602001908152602001600020905080805480602002602001604051908101604052809291908181526020016000905b828210156127d157838290600052602060002090600302016040518060600160405290816000820160009054906101000a900473ffffffffffffffffffffffffffffffffffffffff1673ffffffffffffffffffffffffffffffffffffffff1673ffffffffffffffffffffffffffffffffffffffff1681526020016001820154815260200160028201548152505081526020019060010190612735565b50505050915050919050565b80600460006101000a81548173ffffffffffffffffffffffffffffffffffffffff021916908373ffffffffffffffffffffffffffffffffffffffff16021790555050565b6000806008600085815260200190815260200160002080549050905060005b818110156128e8578373ffffffffffffffffffffffffffffffffffffffff166008600087815260200190815260200160002082815481106128845761288361419d565b5b906000526020600020906003020160000160009054906101000a900473ffffffffffffffffffffffffffffffffffffffff1673ffffffffffffffffffffffffffffffffffffffff16036128d5578092505b80806128e090614155565b915050612840565b505092915050565b600060076000838152602001908152602001600020805490509050919050565b6000806007600085815260200190815260200160002080549050905060005b818110156129d7578373ffffffffffffffffffffffffffffffffffffffff166007600087815260200190815260200160002082815481106129735761297261419d565b5b906000526020600020906004020160000160009054906101000a900473ffffffffffffffffffffffffffffffffffffffff1673ffffffffffffffffffffffffffffffffffffffff16036129c4578092505b80806129cf90614155565b91505061292f565b505092915050565b6000600354905090565b6129f1612ece565b60008111612a34576040517f08c379a0000000000000000000000000000000000000000000000000000000008152600401612a2b9061436d565b60405180910390fd5b6003543414612a78576040517f08c379a0000000000000000000000000000000000000000000000000000000008152600401612a6f90613eeb565b60405180910390fd5b612a826002612f1d565b6040518060c001604052808473ffffffffffffffffffffffffffffffffffffffff1681526020018381526020013373ffffffffffffffffffffffffffffffffffffffff1681526020013373ffffffffffffffffffffffffffffffffffffffff168152602001828152602001600115158152506006600084815260200190815260200160002060008201518160000160006101000a81548173ffffffffffffffffffffffffffffffffffffffff021916908373ffffffffffffffffffffffffffffffffffffffff1602179055506020820151816001015560408201518160020160006101000a81548173ffffffffffffffffffffffffffffffffffffffff021916908373ffffffffffffffffffffffffffffffffffffffff16021790555060608201518160030160006101000a81548173ffffffffffffffffffffffffffffffffffffffff021916908373ffffffffffffffffffffffffffffffffffffffff1602179055506080820151816004015560a08201518160050160006101000a81548160ff0219169083151502179055509050507fa0c6c0d02d86fdacecbaa5fdf5894bab204e31a778250474108540733a9b8d198383333085604051612c4a959493929190613fdf565b60405180910390a1612c5a612f49565b505050565b612c67613145565b600660008381526020019081526020016000206040518060c00160405290816000820160009054906101000a900473ffffffffffffffffffffffffffffffffffffffff1673ffffffffffffffffffffffffffffffffffffffff1673ffffffffffffffffffffffffffffffffffffffff168152602001600182015481526020016002820160009054906101000a900473ffffffffffffffffffffffffffffffffffffffff1673ffffffffffffffffffffffffffffffffffffffff1673ffffffffffffffffffffffffffffffffffffffff1681526020016003820160009054906101000a900473ffffffffffffffffffffffffffffffffffffffff1673ffffffffffffffffffffffffffffffffffffffff1673ffffffffffffffffffffffffffffffffffffffff168152602001600482015481526020016005820160009054906101000a900460ff1615151515815250509050919050565b6060600060086000858152602001908152602001600020905060008180549050905060005b81811015612ec5578473ffffffffffffffffffffffffffffffffffffffff16838281548110612e1457612e1361419d565b5b906000526020600020906003020160000160009054906101000a900473ffffffffffffffffffffffffffffffffffffffff1673ffffffffffffffffffffffffffffffffffffffff1603612eb25783612e8f848381548110612e7857612e7761419d565b5b906000526020600020906003020160020154612fbd565b604051602001612ea092919061466b565b60405160208183030381529060405293505b8080612ebd90614155565b915050612de2565b50505092915050565b600260005403612f13576040517f08c379a0000000000000000000000000000000000000000000000000000000008152600401612f0a906146db565b60405180910390fd5b6002600081905550565b6001816000016000828254019250508190555050565b60008183612f4191906140ff565b905092915050565b6001600081905550565b600081600001549050919050565b60008160000154905060008111612fad576040517f08c379a0000000000000000000000000000000000000000000000000000000008152600401612fa490614747565b60405180910390fd5b6001810382600001819055505050565b606060008203613004576040518060400160405280600181526020017f30000000000000000000000000000000000000000000000000000000000000008152509050613140565b600082905060005b6000821461303657808061301f90614155565b915050600a8261302f9190614796565b915061300c565b60008167ffffffffffffffff811115613052576130516132c7565b5b6040519080825280601f01601f1916602001820160405280156130845781602001600182028036833780820191505090505b50905060008290505b60008614613138576001816130a291906145fb565b90506000600a80886130b49190614796565b6130be91906147c7565b876130c991906145fb565b60306130d5919061482e565b905060008160f81b9050808484815181106130f3576130f261419d565b5b60200101907effffffffffffffffffffffffffffffffffffffffffffffffffffffffffffff1916908160001a905350600a8861312f9190614796565b9750505061308d565b819450505050505b919050565b6040518060c00160405280600073ffffffffffffffffffffffffffffffffffffffff16815260200160008152602001600073ffffffffffffffffffffffffffffffffffffffff168152602001600073ffffffffffffffffffffffffffffffffffffffff168152602001600081526020016000151581525090565b8280546131cb9061409f565b90600052602060002090601f0160209004810192826131ed5760008555613234565b82601f1061320657805160ff1916838001178555613234565b82800160010185558215613234579182015b82811115613233578251825591602001919060010190613218565b5b5090506132419190613245565b5090565b5b8082111561325e576000816000905550600101613246565b5090565b6000604051905090565b600080fd5b600080fd5b6000819050919050565b61328981613276565b811461329457600080fd5b50565b6000813590506132a681613280565b92915050565b600080fd5b600080fd5b6000601f19601f8301169050919050565b7f4e487b7100000000000000000000000000000000000000000000000000000000600052604160045260246000fd5b6132ff826132b6565b810181811067ffffffffffffffff8211171561331e5761331d6132c7565b5b80604052505050565b6000613331613262565b905061333d82826132f6565b919050565b600067ffffffffffffffff82111561335d5761335c6132c7565b5b613366826132b6565b9050602081019050919050565b82818337600083830152505050565b600061339561339084613342565b613327565b9050828152602081018484840111156133b1576133b06132b1565b5b6133bc848285613373565b509392505050565b600082601f8301126133d9576133d86132ac565b5b81356133e9848260208601613382565b91505092915050565b600073ffffffffffffffffffffffffffffffffffffffff82169050919050565b600061341d826133f2565b9050919050565b61342d81613412565b811461343857600080fd5b50565b60008135905061344a81613424565b92915050565b6000806000806080858703121561346a5761346961326c565b5b600061347887828801613297565b945050602085013567ffffffffffffffff81111561349957613498613271565b5b6134a5878288016133c4565b93505060406134b687828801613297565b92505060606134c78782880161343b565b91505092959194509250565b600080604083850312156134ea576134e961326c565b5b60006134f885828601613297565b925050602061350985828601613297565b9150509250929050565b61351c81613412565b82525050565b600081519050919050565b600082825260208201905092915050565b60005b8381101561355c578082015181840152602081019050613541565b8381111561356b576000848401525b50505050565b600061357c82613522565b613586818561352d565b935061359681856020860161353e565b61359f816132b6565b840191505092915050565b6135b381613276565b82525050565b60006080820190506135ce6000830187613513565b81810360208301526135e08186613571565b90506135ef60408301856135aa565b81810360608301526136018184613571565b905095945050505050565b600081519050919050565b600082825260208201905092915050565b6000819050602082019050919050565b61364181613412565b82525050565b61365081613276565b82525050565b6000613661826133f2565b9050919050565b61367181613656565b82525050565b60008115159050919050565b61368c81613677565b82525050565b60c0820160008201516136a86000850182613638565b5060208201516136bb6020850182613647565b5060408201516136ce6040850182613668565b5060608201516136e16060850182613668565b5060808201516136f46080850182613647565b5060a082015161370760a0850182613683565b50505050565b60006137198383613692565b60c08301905092915050565b6000602082019050919050565b600061373d8261360c565b6137478185613617565b935061375283613628565b8060005b8381101561378357815161376a888261370d565b975061377583613725565b925050600181019050613756565b5085935050505092915050565b600060208201905081810360008301526137aa8184613732565b905092915050565b6000602082840312156137c8576137c761326c565b5b60006137d684828501613297565b91505092915050565b60006020820190506137f460008301846135aa565b92915050565b600080600080608085870312156138145761381361326c565b5b600061382287828801613297565b945050602085013567ffffffffffffffff81111561384357613842613271565b5b61384f878288016133c4565b93505060406138608782880161343b565b925050606085013567ffffffffffffffff81111561388157613880613271565b5b61388d878288016133c4565b91505092959194509250565b6000806000606084860312156138b2576138b161326c565b5b60006138c08682870161343b565b93505060206138d186828701613297565b92505060406138e286828701613297565b9150509250925092565b600080604083850312156139035761390261326c565b5b600061391185828601613297565b925050602083013567ffffffffffffffff81111561393257613931613271565b5b61393e858286016133c4565b9150509250929050565b6000806040838503121561395f5761395e61326c565b5b600061396d8582860161343b565b925050602061397e85828601613297565b9150509250929050565b600067ffffffffffffffff8211156139a3576139a26132c7565b5b6139ac826132b6565b9050602081019050919050565b60006139cc6139c784613988565b613327565b9050828152602081018484840111156139e8576139e76132b1565b5b6139f3848285613373565b509392505050565b600082601f830112613a1057613a0f6132ac565b5b8135613a208482602086016139b9565b91505092915050565b600080600060608486031215613a4257613a4161326c565b5b6000613a5086828701613297565b9350506020613a618682870161343b565b925050604084013567ffffffffffffffff811115613a8257613a81613271565b5b613a8e868287016139fb565b9150509250925092565b6000606082019050613aad6000830186613513565b613aba60208301856135aa565b613ac760408301846135aa565b949350505050565b600081519050919050565b600082825260208201905092915050565b6000819050602082019050919050565b600082825260208201905092915050565b6000613b1782613522565b613b218185613afb565b9350613b3181856020860161353e565b613b3a816132b6565b840191505092915050565b6000608083016000830151613b5d6000860182613638565b5060208301518482036020860152613b758282613b0c565b9150506040830151613b8a6040860182613647565b5060608301518482036060860152613ba28282613b0c565b9150508091505092915050565b6000613bbb8383613b45565b905092915050565b6000602082019050919050565b6000613bdb82613acf565b613be58185613ada565b935083602082028501613bf785613aeb565b8060005b85811015613c335784840389528151613c148582613baf565b9450613c1f83613bc3565b925060208a01995050600181019050613bfb565b50829750879550505050505092915050565b60006020820190508181036000830152613c5f8184613bd0565b905092915050565b600081519050919050565b600082825260208201905092915050565b6000819050602082019050919050565b606082016000820151613ca96000850182613638565b506020820151613cbc6020850182613647565b506040820151613ccf6040850182613647565b50505050565b6000613ce18383613c93565b60608301905092915050565b6000602082019050919050565b6000613d0582613c67565b613d0f8185613c72565b9350613d1a83613c83565b8060005b83811015613d4b578151613d328882613cd5565b9750613d3d83613ced565b925050600181019050613d1e565b5085935050505092915050565b60006020820190508181036000830152613d728184613cfa565b905092915050565b600060208284031215613d9057613d8f61326c565b5b6000613d9e8482850161343b565b91505092915050565b60008060408385031215613dbe57613dbd61326c565b5b6000613dcc85828601613297565b9250506020613ddd8582860161343b565b9150509250929050565b60c082016000820151613dfd6000850182613638565b506020820151613e106020850182613647565b506040820151613e236040850182613668565b506060820151613e366060850182613668565b506080820151613e496080850182613647565b5060a0820151613e5c60a0850182613683565b50505050565b600060c082019050613e776000830184613de7565b92915050565b60006020820190508181036000830152613e978184613571565b905092915050565b7f4e6f7420656e6f75676820657468657220666f72206c697374696e6720666565600082015250565b6000613ed560208361352d565b9150613ee082613e9f565b602082019050919050565b60006020820190508181036000830152613f0481613ec8565b9050919050565b600081519050613f1a81613424565b92915050565b600060208284031215613f3657613f3561326c565b5b6000613f4484828501613f0b565b91505092915050565b7f546865206164647265737320686173206e6f74206f776e2074686520746f6b6560008201527f6e00000000000000000000000000000000000000000000000000000000000000602082015250565b6000613fa960218361352d565b9150613fb482613f4d565b604082019050919050565b60006020820190508181036000830152613fd881613f9c565b9050919050565b600060a082019050613ff46000830188613513565b61400160208301876135aa565b61400e6040830186613513565b61401b6060830185613513565b61402860808301846135aa565b9695505050505050565b600060608201905061404760008301866135aa565b6140546020830185613513565b81810360408301526140668184613571565b9050949350505050565b7f4e487b7100000000000000000000000000000000000000000000000000000000600052602260045260246000fd5b600060028204905060018216806140b757607f821691505b6020821081036140ca576140c9614070565b5b50919050565b7f4e487b7100000000000000000000000000000000000000000000000000000000600052601160045260246000fd5b600061410a82613276565b915061411583613276565b9250827fffffffffffffffffffffffffffffffffffffffffffffffffffffffffffffffff0382111561414a576141496140d0565b5b828201905092915050565b600061416082613276565b91507fffffffffffffffffffffffffffffffffffffffffffffffffffffffffffffffff8203614192576141916140d0565b5b600182019050919050565b7f4e487b7100000000000000000000000000000000000000000000000000000000600052603260045260246000fd5b600081905092915050565b50565b60006141e76000836141cc565b91506141f2826141d7565b600082019050919050565b6000614208826141da565b9150819050919050565b7f4661696c656420746f2077697468647261772045746865720000000000000000600082015250565b600061424860188361352d565b915061425382614212565b602082019050919050565b600060208201905081810360008301526142778161423b565b9050919050565b600060608201905061429360008301866135aa565b6142a06020830185613513565b6142ad60408301846135aa565b949350505050565b7f52617465206d757374206265206d6f7265203000000000000000000000000000600082015250565b60006142eb60138361352d565b91506142f6826142b5565b602082019050919050565b6000602082019050818103600083015261431a816142de565b9050919050565b7f5072696365206d757374206265206174206c6561737420312077656900000000600082015250565b6000614357601c8361352d565b915061436282614321565b602082019050919050565b600060208201905081810360008301526143868161434a565b9050919050565b60006060820190506143a26000830186613513565b6143af6020830185613513565b6143bc60408301846135aa565b949350505050565b7f4e6f7420656e6f75676820657468657220746f20636f7665722061736b696e6760008201527f2070726963650000000000000000000000000000000000000000000000000000602082015250565b600061442060268361352d565b915061442b826143c4565b604082019050919050565b6000602082019050818103600083015261444f81614413565b9050919050565b6000819050919050565b600061447b614476614471846133f2565b614456565b6133f2565b9050919050565b600061448d82614460565b9050919050565b600061449f82614482565b9050919050565b6144af81614494565b82525050565b60006060820190506144ca6000830186613513565b6144d760208301856144a6565b6144e460408301846135aa565b949350505050565b600060a0820190506145016000830188613513565b61450e60208301876135aa565b61451b60408301866144a6565b61452860608301856144a6565b61453560808301846135aa565b9695505050505050565b600081519050919050565b600082825260208201905092915050565b60006145668261453f565b614570818561454a565b935061458081856020860161353e565b614589816132b6565b840191505092915050565b60006060820190506145a96000830186613513565b6145b660208301856135aa565b81810360408301526145c8818461455b565b9050949350505050565b60006040820190506145e760008301856135aa565b6145f46020830184613513565b9392505050565b600061460682613276565b915061461183613276565b925082821015614624576146236140d0565b5b828203905092915050565b600081905092915050565b600061464582613522565b61464f818561462f565b935061465f81856020860161353e565b80840191505092915050565b6000614677828561463a565b9150614683828461463a565b91508190509392505050565b7f5265656e7472616e637947756172643a207265656e7472616e742063616c6c00600082015250565b60006146c5601f8361352d565b91506146d08261468f565b602082019050919050565b600060208201905081810360008301526146f4816146b8565b9050919050565b7f436f756e7465723a2064656372656d656e74206f766572666c6f770000000000600082015250565b6000614731601b8361352d565b915061473c826146fb565b602082019050919050565b6000602082019050818103600083015261476081614724565b9050919050565b7f4e487b7100000000000000000000000000000000000000000000000000000000600052601260045260246000fd5b60006147a182613276565b91506147ac83613276565b9250826147bc576147bb614767565b5b828204905092915050565b60006147d282613276565b91506147dd83613276565b9250817fffffffffffffffffffffffffffffffffffffffffffffffffffffffffffffffff0483118215151615614816576148156140d0565b5b828202905092915050565b600060ff82169050919050565b600061483982614821565b915061484483614821565b92508260ff0382111561485a576148596140d0565b5b82820190509291505056fea264697066735822122087a3c2bbe20db136146b895cf23269e1c3002fab2e32d9876fa174e5e1d206e264736f6c634300080d0033",
  "immutableReferences": {},
  "source": "// SPDX-License-Identifier: MIT\npragma solidity ^0.8.13;\n\nimport \"@openzeppelin/contracts/utils/Counters.sol\";\nimport \"@openzeppelin/contracts/token/ERC721/ERC721.sol\";\nimport \"@openzeppelin/contracts/security/ReentrancyGuard.sol\";\nimport \"@openzeppelin/contracts/utils/math/SafeMath.sol\";\nimport \"@openzeppelin/contracts/utils/Strings.sol\";\nimport \"hardhat/console.sol\";\nimport \"./EncNft.sol\";\n\ncontract Marketplace is ReentrancyGuard {\n    using SafeMath for uint256;\n    using Counters for Counters.Counter;\n    Counters.Counter private _nftsSold;\n    Counters.Counter private _nftCount;\n    uint256 public LISTING_FEE = 0.0001 ether;\n    ENCNFT encNftContract;\n    address payable private _marketOwner;\n    mapping(uint256 => NFT) private _idToNFT;\n    struct NFT {\n        address nftContract;\n        uint256 tokenId;\n        address payable seller;\n        address payable owner;\n        uint256 price;\n        bool listed;\n    }\n    event NFTListed(\n        address nftContract,\n        uint256 tokenId,\n        address seller,\n        address owner,\n        uint256 price\n    );\n    event NFTSold(\n        address nftContract,\n        uint256 tokenId,\n        address seller,\n        address owner,\n        uint256 price\n    );\n\n    struct BuyerData {\n        address buyerAddress;\n        string buyerPublicKey;\n        uint256 buyerBet;\n        string goalOfPurchase;\n    }\n\n    struct SellerData {\n        address sellerAddress;\n        uint256 deadline;\n        uint256 sellerSum;\n    }\n    mapping(uint256 => BuyerData[]) public buyersBoard; // to do private\n    mapping(uint256 => SellerData[]) public sellersBoard; // to do private\n\n    event NewOwner(uint256 idToken, address buyerAddress);\n    event TokenForSell(uint256 idToken, address buyerAddress, string message);\n    event BuyerMadeBet(uint256 idToken, address buyerAddress, uint256 bet);\n    event BuyerWithdrewBet(uint256 idToken, address buyerAddress, uint256 bet);\n    event sellerWithdrewSum(\n        uint256 idToken,\n        address sellerAddress,\n        uint256 sum\n    );\n\n    constructor() {\n        _marketOwner = payable(msg.sender);\n    }\n\n    function setNFTContract(address _nftContract) public {\n        encNftContract = ENCNFT(_nftContract);\n    }\n\n    // List the NFT on the marketplace\n    function listNft(\n        address _nftContract,\n        uint256 _tokenId,\n        uint256 _price\n    ) public payable nonReentrant {\n        require(_price > 0, \"Price must be at least 1 wei\");\n        require(msg.value == LISTING_FEE, \"Not enough ether for listing fee\");\n\n        // IERC721(_nftContract).transferFrom(msg.sender, address(this), _tokenId);\n\n        _nftCount.increment();\n\n        _idToNFT[_tokenId] = NFT(\n            _nftContract,\n            _tokenId,\n            payable(msg.sender),\n            payable(msg.sender), // payable(address(this)),\n            _price,\n            true\n        );\n\n        emit NFTListed(\n            _nftContract,\n            _tokenId,\n            msg.sender,\n            address(this),\n            _price\n        );\n    }\n\n    // Buy an NFT\n    function buyNft(address _nftContract, uint256 _tokenId)\n        public\n        payable\n        nonReentrant\n    {\n        NFT storage nft = _idToNFT[_tokenId];\n        require(\n            msg.value >= nft.price,\n            \"Not enough ether to cover asking price\"\n        );\n\n        address payable buyer = payable(msg.sender);\n        payable(nft.seller).transfer(msg.value);\n        IERC721(_nftContract).transferFrom(address(this), buyer, nft.tokenId);\n        _marketOwner.transfer(LISTING_FEE);\n        nft.owner = buyer;\n        nft.listed = false;\n\n        _nftsSold.increment();\n        emit NFTSold(_nftContract, nft.tokenId, nft.seller, buyer, msg.value);\n    }\n\n    // Resell an NFT purchased from the marketplace\n    function resellNft(\n        address _nftContract,\n        uint256 _tokenId,\n        uint256 _price\n    ) public payable nonReentrant {\n        require(_price > 0, \"Price must be at least 1 wei\");\n        require(msg.value == LISTING_FEE, \"Not enough ether for listing fee\");\n\n        IERC721(_nftContract).transferFrom(msg.sender, address(this), _tokenId);\n\n        NFT storage nft = _idToNFT[_tokenId];\n        nft.seller = payable(msg.sender);\n        nft.owner = payable(address(this));\n        nft.listed = true;\n        nft.price = _price;\n\n        _nftsSold.decrement();\n        emit NFTListed(\n            _nftContract,\n            _tokenId,\n            msg.sender,\n            address(this),\n            _price\n        );\n    }\n\n    function getListingFee() public view returns (uint256) {\n        return LISTING_FEE;\n    }\n\n    function getListedNfts() public view returns (NFT[] memory) {\n        uint256 nftCount = _nftCount.current();\n        uint256 unsoldNftsCount = nftCount - _nftsSold.current();\n\n        NFT[] memory nfts = new NFT[](unsoldNftsCount);\n        uint nftsIndex = 0;\n        for (uint i = 0; i < nftCount; i++) {\n            if (_idToNFT[i + 1].listed) {\n                nfts[nftsIndex] = _idToNFT[i + 1];\n                nftsIndex++;\n            }\n        }\n        return nfts;\n    }\n\n    function getMyNfts() public view returns (NFT[] memory) {\n        uint nftCount = _nftCount.current();\n        uint myNftCount = 0;\n        for (uint i = 0; i < nftCount; i++) {\n            if (_idToNFT[i + 1].owner == msg.sender) {\n                myNftCount++;\n            }\n        }\n\n        NFT[] memory nfts = new NFT[](myNftCount);\n        uint nftsIndex = 0;\n        for (uint i = 0; i < nftCount; i++) {\n            if (_idToNFT[i + 1].owner == msg.sender) {\n                nfts[nftsIndex] = _idToNFT[i + 1];\n                nftsIndex++;\n            }\n        }\n        return nfts;\n    }\n\n    function getMyListedNft(uint256 nftId) public view returns (NFT memory) {\n\n      return _idToNFT[nftId];\n    }\n\n    function getMyListedNfts() public view returns (NFT[] memory) {\n        uint nftCount = _nftCount.current();\n        uint myListedNftCount = 0;\n        for (uint i = 0; i < nftCount; i++) {\n            if (\n                _idToNFT[i + 1].seller == msg.sender && _idToNFT[i + 1].listed\n            ) {\n                myListedNftCount++;\n            }\n        }\n\n        NFT[] memory nfts = new NFT[](myListedNftCount);\n        uint nftsIndex = 0;\n        for (uint i = 0; i < nftCount; i++) {\n            if (\n                _idToNFT[i + 1].seller == msg.sender && _idToNFT[i + 1].listed\n            ) {\n                nfts[nftsIndex] = _idToNFT[i + 1];\n                nftsIndex++;\n            }\n        }\n        return nfts;\n    }\n\n    function makeBet(\n        uint256 idToken,\n        string memory buyerPublicKey,\n        address buyerAddress,\n        string memory goalPurchase\n    ) public payable {\n        require(msg.value != 0, \"Rate must be more 0\");\n        uint256 buyerIndex = getBuyerIndex(idToken, buyerAddress);\n        if (\n            buyersBoard[idToken].length > 0 &&\n            buyersBoard[idToken][buyerIndex].buyerAddress == buyerAddress\n        ) {\n            uint256 newBet = buyersBoard[idToken][buyerIndex].buyerBet.add(\n                msg.value\n            );\n            buyersBoard[idToken][buyerIndex].buyerBet = newBet;\n        } else {\n            buyersBoard[idToken].push(\n                BuyerData({\n                    buyerAddress: buyerAddress,\n                    buyerPublicKey: buyerPublicKey,\n                    buyerBet: msg.value,\n                    goalOfPurchase: goalPurchase\n                })\n            );\n        }\n        emit BuyerMadeBet(idToken, buyerAddress, msg.value);\n    }\n\n    function getSellerById(uint256 idToken)\n        public\n        view\n        returns (SellerData[] memory)\n    {\n        SellerData[] storage sellers = sellersBoard[idToken];\n        return sellers;\n    }\n\n    function getCountSellers(uint256 idToken) public view returns (uint256) {\n        return sellersBoard[idToken].length;\n    }\n\n    function getCountBuyers(uint256 idToken) public view returns (uint256) {\n        return buyersBoard[idToken].length;\n    }\n\n    function getBuyersById(uint256 idToken)\n        public\n        view\n        returns (BuyerData[] memory)\n    {\n        BuyerData[] storage buyers = buyersBoard[idToken];\n        return buyers;\n    }\n\n    function buyerWithdrawBet(uint256 idToken) public {\n        uint256 buyerIndex = getBuyerIndex(idToken, msg.sender);\n        (bool succeed, bytes memory data) = msg.sender.call{\n            value: buyersBoard[idToken][buyerIndex].buyerBet\n        }(\"\");\n        require(succeed, \"Failed to withdraw Ether\");\n        emit BuyerWithdrewBet(\n            idToken,\n            msg.sender,\n            buyersBoard[idToken][buyerIndex].buyerBet\n        );\n        buyersBoard[idToken][buyerIndex].buyerBet = 0;\n    }\n\n    function sellerWithdrawSum(uint256 idToken) public {\n        uint256 sellerIndex = getSellerIndex(idToken, msg.sender);\n        (bool succeed, bytes memory data) = msg.sender.call{\n            value: sellersBoard[idToken][sellerIndex].sellerSum\n        }(\"\");\n        require(succeed, \"Failed to withdraw Ether\");\n        emit sellerWithdrewSum(\n            idToken,\n            msg.sender,\n            sellersBoard[idToken][sellerIndex].sellerSum\n        );\n        sellersBoard[idToken][sellerIndex].sellerSum = 0;\n    }\n\n    function acceptRateAndTransferToken( \n        uint256 idToken,\n        address buyerAddress,\n        bytes memory data\n    ) public { \n        uint256 buyerIndex = getBuyerIndex(idToken, buyerAddress);\n        uint256 sellerIndex = getSellerIndex(idToken, msg.sender); \n       encNftContract.transferTokenWithEncryption(buyerAddress, idToken, data);  \n        NFT storage nft = _idToNFT[idToken];\n        nft.seller = payable(buyerAddress);\n        nft.owner = payable(buyerAddress);\n        nft.listed = true;\n        nft.price = buyersBoard[idToken][buyerIndex].buyerBet;\n\n        // _nftsSold.decrement();\n        emit NFTListed(\n            address(encNftContract),\n            idToken,\n            buyerAddress,\n            buyerAddress,\n            buyersBoard[idToken][buyerIndex].buyerBet\n        );\n       \n        sellersBoard[idToken][sellerIndex].sellerSum = sellersBoard[idToken][\n            sellerIndex\n        ].sellerSum.add(buyersBoard[idToken][buyerIndex].buyerBet);\n        buyersBoard[idToken][buyerIndex].buyerBet = 0;\n        sellersBoard[idToken].push(\n            SellerData({\n                sellerAddress: buyerAddress,\n                deadline: block.timestamp.add(10**6),\n                sellerSum: 0\n            })\n        );\n        emit NewOwner(idToken, buyerAddress);\n    }\n\n    function getBuyerIndex(uint256 idToken, address buyerAddress)\n        public\n        view\n        returns (uint256 buyerIndex)\n    {\n        uint256 length = buyersBoard[idToken].length;\n\n        for (uint256 index; index < length; index++) {\n            if (buyersBoard[idToken][index].buyerAddress == buyerAddress) {\n                buyerIndex = index;\n            }\n        }\n        return buyerIndex;\n    }\n\n    function getSellerIndex(uint256 idToken, address sellerAddress)\n        public\n        view\n        returns (uint256 sellerIndex)\n    {\n        uint256 length = sellersBoard[idToken].length;\n\n        for (uint256 index; index < length; index++) {\n            if (sellersBoard[idToken][index].sellerAddress == sellerAddress) {\n                sellerIndex = index;\n            }\n        }\n        return sellerIndex;\n    }\n\n    function moveTokenForSell(uint256 idToken, string memory message, uint256 _price, address _nftContract) public payable nonReentrant { \n        require(msg.value == LISTING_FEE, \"Not enough ether for listing fee\");\n        address currentOwner = encNftContract.ownerOf(idToken);\n        require(\n            currentOwner == msg.sender,\n            \"The address has not own the token\"\n        );\n        _nftCount.increment();\n\n        _idToNFT[idToken] = NFT(\n            _nftContract,\n            idToken,\n            payable(msg.sender),\n            payable(msg.sender), // payable(address(this)),\n            _price,\n            true\n        );\n\n        emit NFTListed(\n            _nftContract,\n            idToken,\n            msg.sender,\n            msg.sender,\n            _price\n        );\n        sellersBoard[idToken].push(\n            SellerData({\n                sellerAddress: msg.sender,\n                deadline: block.timestamp.add(10**6),\n                sellerSum: 0\n            })\n        );\n        emit TokenForSell(idToken, msg.sender, message);\n    }\n\n    function removeTokenFromMarketPlace(uint256 idToken, string memory message)\n        public\n    {\n        // to do for burn case\n        emit TokenForSell(idToken, msg.sender, message);\n    }\n\n    function getOwnerInfo(uint256 _tokenId, address owner)\n        public\n        view\n        returns (string memory balance)\n    {\n        SellerData[] storage allHistorySellersInfo = sellersBoard[_tokenId];\n        uint256 historyLength = allHistorySellersInfo.length;\n        for (uint256 ind; ind < historyLength; ind++) {\n            if (allHistorySellersInfo[ind].sellerAddress == owner) {\n                balance = string(\n                    abi.encodePacked(\n                        balance,\n                        uint2str(allHistorySellersInfo[ind].sellerSum)\n                    )\n                );\n            }\n        }\n        return balance;\n    }\n\n    function uint2str(uint _i)\n        internal\n        pure\n        returns (string memory _uintAsString)\n    {\n        if (_i == 0) {\n            return \"0\";\n        }\n        uint j = _i;\n        uint len;\n        while (j != 0) {\n            len++;\n            j /= 10;\n        }\n        bytes memory bstr = new bytes(len);\n        uint k = len;\n        while (_i != 0) {\n            k = k - 1;\n            uint8 temp = (48 + uint8(_i - (_i / 10) * 10));\n            bytes1 b1 = bytes1(temp);\n            bstr[k] = b1;\n            _i /= 10;\n        }\n        return string(bstr);\n    }\n}\n",
  "sourcePath": "/home/dev/Documents/MY/HACKATHON/OPTIMIZM/nft-marketplace/nft-marketplace/contracts/ethereum/Marketplace.sol",
  "compiler": {
    "name": "solc",
    "version": "0.8.13+commit.abaa5c0e.Emscripten.clang"
  },
  "schemaVersion": "3.4.10",
  "updatedAt": "2022-11-29T19:36:14.075Z",
  "networkType": "ethereum",
  "devdoc": {
    "kind": "dev",
    "methods": {},
    "version": 1
  },
  "userdoc": {
    "kind": "user",
    "methods": {},
    "version": 1
  }
}